:020000040800F2
:1000000000000220810B0008F90A0008070B000815
:100010000D0B0008130B0008190B0008000000006E
:10002000000000000000000000000000115C00085B
:100030001F0B000800000000515E0008B95E0008B8
:10004000D10B0008D10B0008D10B0008D10B000820
:10005000D10B0008D10B0008D10B0008D10B000810
:10006000D10B0008D10B0008D10B0008D10B000800
:10007000D10B0008D10B0008D10B0008D10B0008F0
:10008000D10B0008D10B0008D10B0008D10B0008E0
:10009000D10B0008D10B0008D10B0008D10B0008D0
:1000A000D10B00082D0B0008D10B0008D10B000864
:1000B000D10B0008D10B0008D10B0008D10B0008B0
:1000C000D10B0008D10B0008D10B0008D10B0008A0
:1000D000D10B0008410B0008D10B0008D10B000820
:1000E000D10B0008D10B0008D10B0008D10B000880
:1000F000D10B0008D10B0008D10B0008D10B000870
:10010000D10B0008D10B0008D10B0008D10B00085F
:10011000D10B0008D10B0008D10B0008D10B00084F
:10012000D10B0008D10B0008D10B0008D10B00083F
:10013000D10B0008D10B0008D10B0008D10B00082F
:10014000D10B0008D10B0008D10B0008D10B00081F
:10015000D10B0008D10B0008D10B0008D10B00080F
:10016000D10B0008D10B0008D10B0008D10B0008FF
:10017000D10B0008D10B0008D10B000800000000D3
:08018000D10B0008D10B0008AF
:1001900010B5054C237833B9044B13B10448AFF3C1
:1001A00000800123237010BD140000200000000017
:1001B0009C64000808B5034B1BB103490348AFF327
:1001C000008008BD00000000180000209C640008AA
:1001D000034613F8012B002AFBD1181A0138704787
:1001E00053B94AB9002908BF00281CBF4FF0FF319E
:1001F0004FF0FF3000F072B9ADF1080C6DE904CE9C
:1002000000F006F8DDF804E0DDE9022304B07047F1
:100210002DE9F047089E04468846002B4BD18A42C0
:10022000154667D9B2FA82F24AB1C2F1200701FA43
:1002300002F320FA07F7954047EA030894404FEA93
:10024000154E230CB8FBFEF71FFA85FC0EFB178832
:1002500043EA084307FB0CF1994209D9EB1807F16F
:10026000FF3080F01B81994240F21881023F2B44FD
:100270005B1AA4B2B3FBFEF00EFB103344EA034456
:1002800000FB0CFCA44509D92C1900F1FF3380F0C8
:100290000781A44540F2048102382C4440EA07401B
:1002A000A4EB0C0400271EB1D4400023C6E9004390
:1002B0003946BDE8F0878B4209D9002E00F0EB806B
:1002C0000027C6E9000138463946BDE8F087B3FA91
:1002D00083F7002F47D18B4202D3824200F2FA808B
:1002E000841A61EB030301209846002EE0D0C6E992
:1002F0000048DDE702B9FFDEB2FA82F2002A40F0E0
:100300008F80491B4FEA154E1FFA85F80127B1FB74
:10031000FEFC230C0EFB1C1143EA014308FB0CF10D
:10032000994207D9EB180CF1FF3002D2994200F242
:10033000CD808446591AA3B2B1FBFEF00EFB101417
:1003400043EA044408FB00F8A04507D92C1900F142
:10035000FF3302D2A04500F2B6801846A4EB080491
:1003600040EA0C409FE7C7F1200CBB4022FA0CFE8C
:100370004EEA030E01FA07F420FA0CF521FA0CF309
:100380004FEA1E482543B3FBF8F92C0C08FB193340
:100390001FFA8EFA44EA034309FB0AF49C4202FA6C
:1003A00007F200FA07F10BD91EEB030309F1FF3046
:1003B00080F087809C4240F28480A9F10209734456
:1003C0001B1BADB2B3FBF8F008FB103345EA034446
:1003D00000FB0AFAA24508D91EEB040400F1FF3322
:1003E0006BD2A24569D90238744440EA0940A0FBA7
:1003F0000289A4EB0A044C45C2464B4654D351D063
:10040000002E69D0B1EB0A0564EB030404FA0CFC7E
:10041000FD40FC404CEA0505C6E90054002747E7CB
:10042000C2F1200320FA03F7954001FA02F021FA05
:1004300003F34FEA154E3843010CB3FBFEF71FFAE6
:1004400085F80EFB173341EA034107FB08F38B42A3
:1004500004FA02F407D9691807F1FF3C2FD28B4246
:100460002DD9023F2944CB1A81B2B3FBFEF00EFB1B
:10047000103341EA034100FB08F38B4207D96918A6
:1004800000F1FF3C17D28B4215D902382944C91A12
:1004900040EA07473BE73746304609E70746E7E6C5
:1004A0001846FBE64145ABD2B8EB020A69EB0E02F7
:1004B00001381346A4E76046E9E7184695E7674622
:1004C000D1E781467CE702382C4447E7ACF1020CC7
:1004D0002B442FE7384608E73746E9E6704700BF68
:1004E00080B5A6B000AF00F075FB00F093F800F007
:1004F00025F900F0F9F802F03FFC07F1880300222B
:100500001A605A609A60DA60354BC7F8883007F194
:1005100088031A460121012002F06EFD0246314B8C
:100520001A6007F1700300221A605A609A60DA605C
:100530001A615A612C4B3B6707F170031A4601217F
:100540004FF4807002F0B4FE0246284B1A6007F1A7
:100550004C0324220021184605F059FF244BFB646C
:1005600080233B6608237B6607F14C031A46002173
:10057000204802F069FC02461F4B1A6007F128036D
:1005800024220021184605F042FF1C4BBB624FF4A9
:10059000A063FB6318233B6407F128031A4600217C
:1005A000174802F051FC0246164B1A603B1D2422EC
:1005B0000021184605F02BFF134B7B604FF4A0631E
:1005C000BB611823FB613B1D1A4600210F4802F056
:1005D0003BFC02460E4B1A6002F002FCFEE700BF35
:1005E000B464000884490020C46400083C49002029
:1005F000D4640008F907000838490020E0640008C6
:100600000908000880490020EC64000891080008EF
:100610008849002080B594B000AF07F12003302254
:100620000021184605F0F3FE07F10C0300221A60C2
:100630005A609A60DA601A610023BB60284B1B6C19
:10064000274A43F080531364254B1B6C03F08053FF
:10065000BB60BB6800237B60224B1B68214A43F4CC
:10066000804313601F4B1B6803F480437B607B68EF
:1006700001233B624FF480337B620223BB634FF460
:100680008003FB6304233B64A8237B640223BB64D5
:100690000423FB6407F12003184600F0AFFD034676
:1006A000002B01D000F04AF90F23FB6002233B61CD
:1006B00000237B614FF4A053BB614FF48053FB6177
:1006C00007F10C030521184601F008F80346002B3A
:1006D00001D000F033F900BF5037BD4680BD00BFE8
:1006E000003802400070004080B500AF114B124A44
:1006F0001A60104B4FF461225A600E4B00229A6030
:100700000C4B0022DA600B4B00221A61094B0C22C1
:100710005A61084B00229A61064B0022DA610548B3
:1007200001F03EFC0346002B01D000F007F900BFAA
:1007300080BD00BF404900200010014080B588B056
:1007400000AF07F10C0300221A605A609A60DA6069
:100750001A610023BB60254B1B6B244A43F0100336
:100760001363224B1B6B03F01003BB60BB680023B9
:100770007B601E4B1B6B1D4A43F0800313631B4BB6
:100780001B6B03F080037B607B6800233B60174B8F
:100790001B6B164A43F001031363144B1B6B03F0EE
:1007A00001033B603B680022C021114800F0F2FCCD
:1007B0001823FB6000233B6101237B6107F10C03DD
:1007C00019460C4800F04CFBC023FB6001233B6141
:1007D00000237B610023BB6107F10C031946044829
:1007E00000F03EFB00BF2037BD4680BD0038024010
:1007F000000002400010024080B582B000AF786077
:10080000642002F0CBFBFBE780B586B000AF7860D8
:100810001A4B1B680133194A1360194B1B680A21D4
:10082000184602F087FC78617B69002B21D1134BBD
:100830001B6807F108010A22184605F0DBFD07F1E5
:1008400008031846FFF7C4FC03469AB207F10801F3
:100850004FF47A730B4801F0F0FB4FF47A730B22DC
:100860000949084801F0E9FB054B1B68184602F0EE
:10087000C7FC4021054800F0A6FCC9E700000020A5
:100880008449002040490020F8640008000002402C
:1008900080B586B000AF78601A4B1B680133194AE7
:1008A0001360194B1B680821184602F043FC78615D
:1008B0007B69002B21D1134B1B6807F108010A2229
:1008C000184605F097FD07F108031846FFF780FC6E
:1008D00003469AB207F108014FF47A730B4801F00E
:1008E000ACFB4FF47A730B220949084801F0A5FBD1
:1008F000054B1B68184602F083FC8021054800F078
:1009000062FCC9E700000020844900204049002023
:10091000046500080000024080B582B000AF786036
:100920007B681B68044A934201D100F075F900BF4F
:100930000837BD4680BD00BF0000014080B400AF55
:1009400000BFBD465DF8047B7047000080B582B0F3
:1009500000AF00237B60124B5B6C114A43F4804371
:1009600053640F4B5B6C03F480437B607B68002314
:100970003B600B4B1B6C0A4A43F080531364084BDB
:100980001B6C03F080533B603B6800220F216FF02B
:10099000010000F019FA00BF0837BD4680BD00BF56
:1009A0000038024080B58AB000AF786007F11403C8
:1009B00000221A605A609A60DA601A617B681B68CC
:1009C0001D4A934234D100233B611C4B5B6C1B4A94
:1009D00043F010035364194B5B6C03F010033B614D
:1009E0003B690023FB60154B1B6B144A43F001036A
:1009F0001363124B1B6B03F00103FB60FB684FF4A6
:100A0000C0637B610223BB610123FB6103233B6263
:100A100007237B6207F114031946094800F020FA06
:100A200000220521252000F0CFF9252000F0E8F96B
:100A300000BF2837BD4680BD00100140003802408D
:100A40000000024080B58CB000AF78600023FB62EC
:100A50000023BB6200227968192000F0B5F9192043
:100A600000F0CEF90023FB601F4B5B6C1E4A43F085
:100A7000010353641C4B5B6C03F00103FB60FB68D8
:100A800007F1100207F114031146184601F018F897
:100A900001F002F803465B00FB62FB6A134AA2FB0B
:100AA00003239B0C013BBB62114B124A1A60104B93
:100AB00040F2E732DA600E4ABB6A53600C4B002208
:100AC0001A610B4B00229A60094801F02BF803468B
:100AD000002B04D1064801F05AF8034600E0012338
:100AE00018463037BD4680BD0038024083DE1B43C8
:100AF0008C4900200000014080B400AF00BFBD461B
:100B00005DF8047B704780B400AFFEE780B400AFAF
:100B1000FEE780B400AFFEE780B400AFFEE780B42C
:100B200000AF00BFBD465DF8047B704780B500AFE5
:100B3000024801F050F800BF80BD00BF8C49002082
:100B400080B500AF024801F011FB00BF80BD00BFBF
:100B50004049002080B400AF084BD3F88830074AE2
:100B600043F47003C2F88830044B4FF000629A607F
:100B700000BFBD465DF8047B704700BF00ED00E09C
:100B8000DFF834D0002103E00C4B5B5843500431B4
:100B90000B480C4B42189A42F6D30B4A02E0002352
:100BA00042F8043B094B9A42F9D3FFF7D3FF05F013
:100BB000E5FBFFF795FC7047000002207865000810
:100BC000000000201400002014000020104A002023
:100BD000FEE7000080B500AF0E4B1B680D4A43F4E2
:100BE000007313600B4B1B680A4A43F48063136065
:100BF000084B1B68074A43F480731360032000F01E
:100C0000D8F80020FFF71EFFFFF7A0FE00231846CC
:100C100080BD00BF003C024080B400AF064B1B7893
:100C20001A46064B1B681344044A136000BFBD46B6
:100C30005DF8047B704700BF0C000020CC49002009
:100C400080B400AF034B1B681846BD465DF8047BBB
:100C5000704700BFCC49002080B485B000AF7860F9
:100C60007B6803F00703FB600C4BDB68BB60BA6872
:100C70004FF6FF031340BB60FB681A02BB681343C7
:100C800043F0BF6343F40033BB60044ABB68D360E6
:100C900000BF1437BD465DF8047B704700ED00E0EF
:100CA00080B400AF044BDB681B0A03F0070318464F
:100CB000BD465DF8047B704700ED00E080B483B072
:100CC00000AF0346FB7197F90730002B0BDBFB7974
:100CD00003F01F02074997F907305B09012000FA6A
:100CE00002F241F8232000BF0C37BD465DF8047BBB
:100CF000704700BF00E100E080B483B000AF03465E
:100D00003960FB7197F90730002B0ADB3B68DAB2D8
:100D10000C4997F907301201D2B20B4483F8002333
:100D20000AE03B68DAB20849FB7903F00F03043BA1
:100D30001201D2B20B441A7600BF0C37BD465DF8E3
:100D4000047B704700E100E000ED00E080B489B072
:100D500000AFF860B9607A60FB6803F00703FB61DD
:100D6000FB69C3F10703042B28BF0423BB61FB69A4
:100D70000433062B02D9FB69033B00E000237B61AF
:100D80004FF0FF32BB6902FA03F3DA43BB681A4043
:100D90007B699A404FF0FF317B6901FA03F3D94335
:100DA0007B680B40134318462437BD465DF8047B2F
:100DB000704780B582B000AF78607868FFF74CFF6D
:100DC00000BF0837BD4680BD80B586B000AF034682
:100DD000B9607A60FB7300237B61FFF761FF786184
:100DE0007A68B9687869FFF7B1FF024697F90F3062
:100DF00011461846FFF780FF00BF1837BD4680BD7B
:100E000080B582B000AF0346FB7197F907301846F2
:100E1000FFF754FF00BF0837BD4680BD80B483B0E4
:100E200000AF78607B6893F83530DBB2022B04D0DA
:100E30007B6880225A6501230CE07B68052283F8D9
:100E400035207B681B681A687B681B6822F00102EA
:100E50001A60002318460C37BD465DF8047B7047C6
:100E600080B489B000AF7860396000237B610023D3
:100E70003B610023BB610023FB616BE10122FB6945
:100E800002FA03F37B613B681B687A6913403B619C
:100E90003A697B699A4240F05A813B685B68012B52
:100EA0000BD03B685B68022B07D03B685B68112B5B
:100EB00003D03B685B68122B30D17B689B68BB61B9
:100EC000FB695B00032202FA03F3DB43BA691340B8
:100ED000BB613B68DA68FB695B0002FA03F3BA693D
:100EE0001343BB617B68BA699A607B685B68BB61CE
:100EF0000122FB6902FA03F3DB43BA691340BB61C9
:100F00003B685B681B0903F00102FB6902FA03F30B
:100F1000BA691343BB617B68BA695A607B68DB6856
:100F2000BB61FB695B00032202FA03F3DB43BA698E
:100F30001340BB613B689A68FB695B0002FA03F3EC
:100F4000BA691343BB617B68BA69DA603B685B6866
:100F5000022B03D03B685B68122B23D1FB69DA08B4
:100F60007B68083253F82230BB61FB6903F007034A
:100F70009B000F2202FA03F3DB43BA691340BB6103
:100F80003B681A69FB6903F007039B0002FA03F34D
:100F9000BA691343BB61FB69DA087B680832B96937
:100FA00043F822107B681B68BB61FB695B0003226E
:100FB00002FA03F3DB43BA691340BB613B685B6829
:100FC00003F00302FB695B0002FA03F3BA691343FF
:100FD000BB617B68BA691A603B685B6803F0805349
:100FE000002B00F0B4800023FB605F4B5B6C5E4A1B
:100FF00043F4804353645C4B5B6C03F48043FB60BD
:10100000FB685A4AFB699B08023352F82330BB61E4
:10101000FB6903F003039B000F2202FA03F3DB4397
:10102000BA691340BB617B68514A93422BD07B68FD
:10103000504A934225D07B684F4A93421FD07B6829
:101040004E4A934219D07B684D4A934213D07B6835
:101050004C4A93420DD07B684B4A934207D07B6841
:101060004A4A934201D107230EE008230CE00623ED
:101070000AE0052308E0042306E0032304E002233A
:1010800002E0012300E00023FA6902F0030292006B
:101090009340BA691343BB613449FB699B0802332F
:1010A000BA6941F823203A4B1B68BB613B69DB43BB
:1010B000BA691340BB613B685B6803F48033002B63
:1010C00003D0BA693B691343BB61314ABB69136002
:1010D0002F4B5B68BB613B69DB43BA691340BB6163
:1010E0003B685B6803F40033002B03D0BA693B69AB
:1010F0001343BB61264ABB695360254B9B68BB61A8
:101100003B69DB43BA691340BB613B685B6803F42E
:101110008013002B03D0BA693B691343BB611C4A9F
:10112000BB6993601A4BDB68BB613B69DB43BA69FF
:101130001340BB613B685B6803F40013002B03D0D2
:10114000BA693B691343BB61114ABB69D360FB6950
:101150000133FB61FB690F2B7FF690AE00BF243794
:10116000BD465DF8047B70470038024000380140FE
:10117000000002400004024000080240000C02404F
:10118000001002400014024000180240001C0240FF
:10119000003C014080B483B000AF78600B467B8098
:1011A00013467B707B78002B03D07A887B689A612A
:1011B00003E07B881A047B689A6100BF0C37BD4648
:1011C0005DF8047B704780B483B000AF78600B4655
:1011D0007B807B685A697B881A407B889A4204D15D
:1011E0007B881A047B689A6102E07A887B689A613E
:1011F00000BF0C37BD465DF8047B704780B586B0F4
:1012000000AF78607B68002B01D101235BE27B6833
:101210001B6803F00103002B75D0A34B9B6803F000
:101220000C03042B0CD0A04B9B6803F00C03082B81
:1012300012D19D4B5B6803F48003B3F5800F0BD193
:10124000994B1B6803F40033002B5BD07B685B6811
:10125000002B57D1012336E27B685B68B3F5803FF2
:1012600006D1914B1B68904A43F4803313601DE014
:101270007B685B68B3F5A02F0CD18B4B1B688A4A47
:1012800043F480231360884B1B68874A43F4803300
:1012900013600BE0844B1B68834A23F48033136094
:1012A000814B1B68804A23F4802313607B685B6852
:1012B000002B13D0FFF7C4FC386108E0FFF7C0FC37
:1012C00002463B69D31A642B01D90323FBE1764B19
:1012D0001B6803F40033002BF0D014E0FFF7B0FCE0
:1012E000386108E0FFF7ACFC02463B69D31A642B77
:1012F00001D90323E7E16C4B1B6803F40033002B97
:10130000F0D100E000BF7B681B6803F00203002BF4
:1013100063D0654B9B6803F00C03002B0BD0624B32
:101320009B6803F00C03082B1CD15F4B5B6803F434
:101330008003002B16D15C4B1B6803F00203002BCB
:1013400005D07B68DB68012B01D00123BBE1564B44
:101350001B6823F0F8027B681B69DB0052491343CA
:101360000B603AE07B68DB68002B20D04F4B0122FA
:101370001A60FFF765FC386108E0FFF761FC024680
:101380003B69D31A022B01D903239CE1464B1B680E
:1013900003F00203002BF0D0434B1B6823F0F8024C
:1013A0007B681B69DB00404913430B6015E03F4B32
:1013B00000221A60FFF744FC386108E0FFF740FCA8
:1013C00002463B69D31A022B01D903237BE1364B3A
:1013D0001B6803F00203002BF0D17B681B6803F04D
:1013E0000803002B30D07B685B69002B16D0304B94
:1013F00001221A60FFF724FC386108E0FFF720FCA7
:1014000002463B69D31A022B01D903235BE1264B29
:101410005B6F03F00203002BF0D015E0244B002299
:101420001A60FFF70DFC386108E0FFF709FC02467F
:101430003B69D31A022B01D9032344E11A4B5B6F9A
:1014400003F00203002BF0D17B681B6803F0040358
:10145000002B00F0A0800023FB75134B1B6C03F0E6
:101460008053002B0FD10023BB600F4B1B6C0E4A27
:1014700043F0805313640C4B1B6C03F08053BB6030
:10148000BB680123FB750B4B1B6803F48073002BB7
:1014900021D1084B1B68074A43F480731360FFF7A0
:1014A000CFFB386111E000BF003802400000474226
:1014B000800E474200700040FFF7C2FB02463B69C6
:1014C000D31A022B01D90323FDE0814B1B6803F4DF
:1014D0008073002BF0D07B689B68012B06D17D4B7D
:1014E0001B6F7C4A43F0010313671CE07B689B6819
:1014F000052B0CD1774B1B6F764A43F0040313671F
:10150000744B1B6F734A43F0010313670BE0714B7D
:101510001B6F704A23F0010313676E4B1B6F6D4AFC
:1015200023F0040313677B689B68002B15D0FFF73B
:1015300087FB38610AE0FFF783FB02463B69D31A59
:1015400041F28832934201D90323BCE0614B1B6F07
:1015500003F00203002BEED014E0FFF771FB3861BB
:101560000AE0FFF76DFB02463B69D31A41F288326D
:10157000934201D90323A6E0564B1B6F03F00203ED
:10158000002BEED1FB7D012B05D1524B1B6C514A38
:1015900023F0805313647B689B69002B00F09280DA
:1015A0004C4B9B6803F00C03082B5CD07B689B6959
:1015B000022B41D1484B00221A60FFF741FB3861F2
:1015C00008E0FFF73DFB02463B69D31A022B01D925
:1015D000032378E03F4B1B6803F00073002BF0D12E
:1015E0007B68DA697B681B6A1A437B685B6A9B01CC
:1015F0001A437B689B6A5B08013B1B041A437B68A8
:10160000DB6A1B06334913434B60334B01221A60DC
:10161000FFF716FB386108E0FFF712FB02463B6953
:10162000D31A022B01D903234DE02A4B1B6803F088
:101630000073002BF0D045E0274B00221A60FFF723
:10164000FFFA386108E0FFF7FBFA02463B69D31A5C
:10165000022B01D9032336E01E4B1B6803F00073F5
:10166000002BF0D12EE07B689B69012B01D1012377
:1016700029E0184B9B68FB60FB6803F480027B68E1
:10168000DB699A421CD1FB6803F03F027B681B6A4E
:101690009A4215D1FA6847F6C07313407A68526AC5
:1016A00093420DD1FB6803F440327B689B6A9A42F7
:1016B00006D1FB6803F070627B68DB6A9A4201D056
:1016C000012300E0002318461837BD4680BD00BF47
:1016D00000700040003802406000474280B584B08E
:1016E00000AF786039607B68002B01D10123CCE02A
:1016F000684B1B6803F00F033A689A420CD9654B9C
:101700003A68D2B21A70634B1B6803F00F033A6851
:101710009A4201D00123B8E07B681B6803F0020302
:10172000002B20D07B681B6803F00403002B05D03E
:10173000594B9B68584A43F4E05393607B681B689D
:1017400003F00803002B05D0534B9B68524A43F427
:1017500060439360504B9B6823F0F0027B689B686A
:101760004D4913438B607B681B6803F00103002B1A
:1017700044D07B685B68012B07D1474B1B6803F49F
:101780000033002B19D101237FE07B685B68022BBB
:1017900003D07B685B68032B07D13F4B1B6803F0CA
:1017A0000073002B09D101236FE03B4B1B6803F052
:1017B0000203002B01D1012367E0374B9B6823F024
:1017C00003027B685B68344913438B60FFF738FA88
:1017D000F8600AE0FFF734FA0246FB68D31A41F2D8
:1017E0008832934201D903234FE02B4B9B6803F0CF
:1017F0000C027B685B689B009A42EBD1254B1B680F
:1018000003F00F033A689A420CD2224B3A68D2B2E4
:101810001A70204B1B6803F00F033A689A4201D0FC
:10182000012332E07B681B6803F00403002B08D01F
:10183000194B9B6823F4E0527B68DB68164913431D
:101840008B607B681B6803F00803002B09D0124BE8
:101850009B6823F460427B681B69DB000E491343DD
:101860008B6000F021F801460B4B9B681B0903F0CD
:101870000F030A4AD35C21FA03F3094A1360094BA8
:101880001B681846FFF7DEF8002318461037BD46E0
:1018900080BD00BF003C02400038024028650008BF
:1018A0000400002008000020F0B585B000AF002340
:1018B0007B600023FB6000233B600023BB60634B25
:1018C0009B6803F00C03042B07D0082B08D0002BD7
:1018D00040F0B4805E4BBB60B3E05E4BBB60B0E0F9
:1018E0005A4B5B6803F03F037B60584B5B6803F423
:1018F0008003002B4AD0554B5B689B094FF00004D6
:1019000040F2FF114FF0000203EA010504EA02066B
:10191000294632464FF000034FF00004540144EAD8
:10192000D1644B0119462246491B62EB06024FF077
:1019300000034FF00004940144EA91648B015B1AA8
:1019400064EB02044FF000014FF00002E20042EAB3
:101950005372D9000B4614465B1944EB06044FF052
:1019600000014FF00002620242EAD35259020B46D4
:101970001446184621467B684FF000041A46234659
:10198000FEF72EFC03460C46FB6049E02F4B5B68DC
:101990009B094FF0000440F2FF114FF0000203EAF0
:1019A000010504EA0206294632464FF000034FF0D3
:1019B0000004540144EAD1644B0119462246491BF4
:1019C00062EB06024FF000034FF00004940144EA7A
:1019D00091648B015B1A64EB02044FF000014FF03D
:1019E0000002E20042EA5372D9000B4614465B192A
:1019F00044EB06044FF000014FF00002A20242EA5D
:101A0000935299020B461446184621467B684FF0C4
:101A100000041A462346FEF7E3FB03460C46FB6030
:101A20000A4B5B681B0C03F0030301335B003B6054
:101A3000FA683B68B2FBF3F3BB6002E0044BBB60A7
:101A400000BFBB6818461437BD46F0BD00380240E1
:101A50000024F40000127A0080B400AF034B1B682E
:101A60001846BD465DF8047B704700BF04000020A7
:101A700080B500AFFFF7F0FF0146054B9B689B0A5E
:101A800003F00703034AD35C21FA03F3184680BD31
:101A9000003802403865000880B500AFFFF7DCFF72
:101AA0000146054B9B685B0B03F00703034AD35CBD
:101AB00021FA03F3184680BD00380240386500085B
:101AC00080B483B000AF786039607B680F221A6001
:101AD000124B9B6803F003027B685A600F4B9B68B4
:101AE00003F0F0027B689A600C4B9B6803F4E052B1
:101AF0007B68DA60094B9B68DB0803F4E0527B6883
:101B00001A61074B1B6803F00F023B681A6000BFA5
:101B10000C37BD465DF8047B704700BF00380240BB
:101B2000003C024080B582B000AF78607B68002B3B
:101B300001D101231DE07B6893F83D30DBB2002B1F
:101B400006D17B68002283F83C20786800F015F805
:101B50007B68022283F83D207B681A687B68043327
:101B60001946104600F068F97B68012283F83D2091
:101B7000002318460837BD4680BD80B483B000AF4F
:101B8000786000BF0C37BD465DF8047B704780B4B9
:101B900085B000AF78607B681B68DA687B681B687B
:101BA00042F00102DA607B681B689B6803F0070360
:101BB000FB60FB68062B07D07B681B681A687B6894
:101BC0001B6842F001021A60002318461437BD4614
:101BD0005DF8047B704780B582B000AF78607B68A9
:101BE0001B681B6903F00203022B22D17B681B6870
:101BF000DB6803F00203022B1BD17B681B686FF0CC
:101C000002021A617B6801221A777B681B689B6954
:101C100003F00303002B03D0786800F0EEF805E032
:101C2000786800F0E0F8786800F0F1F87B6800224E
:101C30001A777B681B681B6903F00403042B22D10D
:101C40007B681B68DB6803F00403042B1BD17B68F3
:101C50001B686FF004021A617B6802221A777B68A6
:101C60001B689B6903F44073002B03D0786800F075
:101C7000C4F805E0786800F0B6F8786800F0C7F8B6
:101C80007B6800221A777B681B681B6903F00803D6
:101C9000082B22D17B681B68DB6803F00803082B44
:101CA0001BD17B681B686FF008021A617B680422F5
:101CB0001A777B681B68DB6903F00303002B03D0F2
:101CC000786800F09AF805E0786800F08CF8786899
:101CD00000F09DF87B6800221A777B681B681B69FF
:101CE00003F01003102B22D17B681B68DB6803F024
:101CF0001003102B1BD17B681B686FF010021A6158
:101D00007B6808221A777B681B68DB6903F44073E1
:101D1000002B03D0786800F070F805E0786800F0D8
:101D200062F8786800F073F87B6800221A777B68A5
:101D30001B681B6903F00103012B0ED17B681B6834
:101D4000DB6803F00103012B07D17B681B686FF090
:101D500001021A617868FEF7DFFD7B681B681B696A
:101D600003F08003802B0ED17B681B68DB6803F0D7
:101D70008003802B07D17B681B686FF080021A619B
:101D8000786800F003F97B681B681B6903F0400367
:101D9000402B0ED17B681B68DB6803F04003402BAF
:101DA00007D17B681B686FF040021A61786800F009
:101DB00038F87B681B681B6903F02003202B0ED1C9
:101DC0007B681B68DB6803F02003202B07D17B684E
:101DD0001B686FF020021A61786800F0CDF800BF30
:101DE0000837BD4680BD80B483B000AF786000BFC7
:101DF0000C37BD465DF8047B704780B483B000AFFC
:101E0000786000BF0C37BD465DF8047B704780B436
:101E100083B000AF786000BF0C37BD465DF8047B2F
:101E2000704780B483B000AF786000BF0C37BD4608
:101E30005DF8047B7047000080B485B000AF786027
:101E400039607B681B68FB607B68404A934213D013
:101E50007B68B3F1804F0FD07B683D4A93420BD033
:101E60007B683C4A934207D07B683B4A934203D04D
:101E70007B683A4A934208D1FB6823F07003FB6009
:101E80003B685B68FA681343FB607B682F4A9342A8
:101E90002BD07B68B3F1804F27D07B682C4A9342CC
:101EA00023D07B682B4A93421FD07B682A4A9342F7
:101EB0001BD07B68294A934217D07B68284A9342FB
:101EC00013D07B68274A93420FD07B68264A9342FF
:101ED0000BD07B68254A934207D07B68244A934203
:101EE00003D07B68234A934208D1FB6823F44073F4
:101EF000FB603B68DB68FA681343FB60FB6823F018
:101F000080023B685B691343FB607B68FA681A6078
:101F10003B689A687B68DA623B681A687B689A62F9
:101F20007B680A4A934203D07B680C4A934203D1F0
:101F30003B681A697B681A637B6801225A6100BF9B
:101F40001437BD465DF8047B704700BF00000140B8
:101F50000004004000080040000C00400004014064
:101F6000004001400044014000480140001800408A
:101F7000001C00400020004080B483B000AF7860B7
:101F800000BF0C37BD465DF8047B704780B483B05A
:101F900000AF786000BF0C37BD465DF8047B70472A
:101FA00080B582B000AF78607B68002B01D101233F
:101FB0003FE07B6893F83930DBB2002B06D17B68B9
:101FC000002283F838207868FEF7ECFC7B68242236
:101FD00083F839207B681B68DA687B681B6822F409
:101FE0000052DA60786800F04BFB7B681B681A6966
:101FF0007B681B6822F490421A617B681B685A69EF
:102000007B681B6822F02A025A617B681B68DA68C9
:102010007B681B6842F40052DA607B680022DA6356
:102020007B68202283F839207B68202283F83A20BD
:10203000002318460837BD4680BD80B588B002AF82
:10204000F860B9603B601346FB8000237B61FB684E
:1020500093F83930DBB2202B40F08380BB68002B33
:1020600002D0FB88002B01D101237BE0FB6893F8B1
:102070003830012B01D1022374E0FB68012283F880
:102080003820FB680022DA63FB68212283F83920BC
:10209000FEF7D6FD7861FB68FA889A84FB68FA88B7
:1020A000DA84FB68002283F8382042E0FB68DB8C8E
:1020B0009BB2013B9AB2FB68DA84FB689B68B3F57C
:1020C000805F22D13B6800937B6900228021F86801
:1020D00000F06AF90346002B01D0032342E0BB68FD
:1020E0003B613B691B881A46FB681B68C2F3080208
:1020F0005A60FB681B69002B03D1BB680233BB60CD
:1021000017E0BB680133BB6013E03B6800937B6959
:1021100000228021F86800F047F90346002B01D027
:1021200003231FE0BB685A1CBA601A78FB681B685F
:102130005A60FB68DB8C9BB2002BB7D13B680093E5
:102140007B6900224021F86800F02EF90346002B3D
:1021500001D0032306E0FB68202283F83920002306
:1021600000E0022318461837BD4680BD80B588B010
:1021700000AF78607B681B681B68FB617B681B682D
:10218000DB68BB617B681B685B697B6100233B612B
:102190000023FB60FB6903F00F033B613B69002BED
:1021A0000DD1FB6903F02003002B08D0BB6903F0BD
:1021B0002003002B03D0786800F0E0F9D1E03B6900
:1021C000002B00F0B0807B6903F00103002B05D1E8
:1021D000BB6903F49073002B00F0A580FB6903F04A
:1021E0000103002B0AD0BB6903F48073002B05D0D8
:1021F0007B68DB6B43F001027B68DA63FB6903F009
:102200000403002B0AD07B6903F00103002B05D0E7
:102210007B68DB6B43F002027B68DA63FB6903F0E7
:102220000203002B0AD07B6903F00103002B05D0C9
:102230007B68DB6B43F004027B68DA63FB6903F0C5
:102240000803002B0FD0BB6903F02003002B04D13F
:102250007B6903F00103002B05D07B68DB6B43F047
:1022600008027B68DA637B68DB6B002B78D0FB6944
:1022700003F02003002B07D0BB6903F02003002BE1
:1022800002D0786800F07AF97B681B685B6903F01C
:102290004003402B0CBF01230023DBB2FB607B68B3
:1022A000DB6B03F00803002B02D1FB68002B31D05D
:1022B000786800F0C3F87B681B685B6903F0400333
:1022C000402B23D17B681B685A697B681B6822F00E
:1022D00040025A617B685B6B002B13D07B685B6BA1
:1022E000214A1A657B685B6B1846FEF797FD03462B
:1022F000002B16D07B685B6B1B6D7A68526B1046A7
:1023000098470EE0786800F045F80AE0786800F039
:1023100041F806E0786800F03DF87B680022DA6357
:102320001EE000BF1CE0FB6903F08003002B08D017
:10233000BB6903F08003002B03D0786800F0B0F88D
:102340000FE0FB6903F04003002B0AD0BB6903F0E8
:102350004003002B05D0786800F0F8F800BF00E0DB
:1023600000BF2037BD4680BD7924000880B483B00B
:1023700000AF786000BF0C37BD465DF8047B704746
:1023800080B483B000AF786000BF0C37BD465DF805
:10239000047B704780B483B000AF786000BF0C3717
:1023A000BD465DF8047B704780B584B000AFF8602F
:1023B000B9603B601346FB712CE0BB69B3F1FF3F92
:1023C00028D0BB69002B07D0FEF73AFC02463B68D9
:1023D000D31ABA699A421DD2FB681B68DA68FB6897
:1023E0001B6822F4D072DA60FB681B685A69FB68CC
:1023F0001B6822F001025A61FB68202283F8392011
:10240000FB68202283F83A20FB68002283F83820FA
:1024100003230FE0FB681B681A68BB681340BA68A7
:102420009A420CBF01230023DBB21A46FB799A4281
:10243000C3D0002318461037BD4680BD80B483B09A
:1024400000AF78607B681B68DA687B681B6822F4E1
:102450009072DA607B681B685A697B681B6822F09F
:1024600001025A617B68202283F83A2000BF0C37B2
:10247000BD465DF8047B704780B584B000AF7860DE
:102480007B689B6BFB60FB680022DA85FB6800229F
:10249000DA84F868FFF77EFF00BF1037BD4680BDC5
:1024A00080B485B000AF78607B6893F83930DBB2D8
:1024B000212B44D17B689B68B3F5805F1AD17B6880
:1024C0001B6AFB60FB681B881A467B681B68C2F3AB
:1024D00008025A607B681B69002B05D17B681B6A68
:1024E0009A1C7B681A620EE07B681B6A5A1C7B6828
:1024F0001A6208E07B681B6A591C7A6811621A78B4
:102500007B681B685A607B68DB8C9BB2013B9BB28B
:102510007A681946D184002B0FD17B681B68DA6872
:102520007B681B6822F08002DA607B681B68DA68CF
:102530007B681B6842F04002DA60002300E002235F
:1025400018461437BD465DF8047B704780B582B0ED
:1025500000AF78607B681B68DA687B681B6822F0D4
:102560004002DA607B68202283F839207868FFF720
:10257000FDFE002318460837BD4680BD80B584B0F7
:1025800000AF78607B6893F83A30DBB2222B71D1D0
:102590007B689B68B3F5805F23D17B689B6AFB6097
:1025A0007B681B69002B0ED17B681B685B689BB244
:1025B000C3F308039AB2FB681A807B689B6A9A1C73
:1025C0007B689A6229E07B681B685B689BB2DBB220
:1025D0009AB2FB681A807B689B6A5A1C7B689A6275
:1025E0001BE07B681B69002B0AD17B681B6858685D
:1025F0007B689B6A591C7A689162C2B21A700CE0BF
:102600007B681B685B68DAB27B689B6A581C7968D8
:10261000886202F07F02D2B21A707B68DB8D9BB2B7
:10262000013B9BB27A681946D185002B20D17B688B
:102630001B68DA687B681B6822F02002DA607B681E
:102640001B68DA687B681B6822F48072DA607B683A
:102650001B685A697B681B6822F001025A617B681B
:10266000202283F83A207868FFF78AFE002302E0F0
:10267000002300E0022318461037BD4680BD00004D
:102680002DE9F04F85B000AF78607B681B681B694F
:1026900023F440517B68DA687B681B680A431A613F
:1026A0007B689A687B681B691A437B685B691A437D
:1026B0007B68DB691343FB607B681B68DB6823F482
:1026C000164323F00C037A681268F9680B43D36051
:1026D0007B681B685B6923F440717B689A697B683F
:1026E0001B680A435A617B68DB69B3F5004F40F011
:1026F0008B817B681B68C14A934205D07B681B684D
:10270000BF4A934240F0BD80FFF7C6F9B860BB688E
:102710001D464FF00006A846B14618EB080349EBEA
:1027200009049846A14618EB050849EB06094FF045
:1027300000014FF000024FEAC90242EA58724FEA24
:10274000C8018846914618EB050049EB06017B68F5
:102750005B681D464FF000066B1946EB06041A46EF
:102760002346FDF73DFD03460C461A46A54BA3FB49
:1027700002235B094FEA0318BB681D464FF00006B1
:10278000A946B24619EB09034AEB0A049946A24648
:1027900019EB05094AEB060A4FF000014FF0000261
:1027A0004FEACA0242EA59724FEAC9018946924683
:1027B00019EB05004AEB06017B685B681D464FF08C
:1027C00000066B1946EB06041A462346FDF708FD82
:1027D00003460C461A468B4BA3FB02135B0964218C
:1027E00001FB03F3D31ADB003233864AA2FB032337
:1027F0005B095B0003F4F8739844BB681D464FF017
:102800000006A946B24619EB09034AEB0A049946A9
:10281000A24619EB05094AEB060A4FF000014FF0FA
:1028200000024FEACA0242EA59724FEAC9018946D8
:10283000924619EB05004AEB06017B685B681D4672
:102840004FF000066B1946EB06041A462346FDF7C7
:10285000C7FC03460C461A466A4BA3FB02135B09EE
:10286000642101FB03F3D31ADB003233654AA2FB78
:1028700003235B0903F007027B681B6842449A60EC
:102880006FE2FFF7F5F8B860BB681D464FF0000631
:10289000A846B14618EB080349EB09049846A1463F
:1028A00018EB050849EB06094FF000014FF0000254
:1028B0004FEAC90242EA58724FEAC8018846914677
:1028C00018EB050049EB06017B685B681D464FF07D
:1028D00000066B1946EB06041A462346FDF780FCFA
:1028E00003460C461A46474BA3FB02235B094FEAFB
:1028F0000318BB681D464FF00006A946B24619EB07
:1029000009034AEB0A049946A24619EB05094AEB6A
:10291000060A4FF000014FF000024FEACA0242EAF5
:1029200059724FEAC9018946924619EB05004AEBF4
:1029300006017B685B681D464FF000066B1946EB8D
:1029400006041A462346FDF74BFC03460C461A467E
:102950002C4BA3FB02135B09642101FB03F3D31A85
:10296000DB003233274AA2FB03235B095B0003F43D
:10297000F8739844BB681D464FF00006A946B2465E
:1029800019EB09034AEB0A049946A24619EB05091B
:102990004AEB060A4FF000014FF000024FEACA026C
:1029A00042EA59724FEAC9018946924619EB05007D
:1029B0004AEB06017B685B681D464FF000066B1909
:1029C00046EB06041A462346FDF70AFC03460C466E
:1029D0001A460C4BA3FB02135B09642101FB03F3B2
:1029E000D31ADB003233074AA2FB03235B0903F04F
:1029F00007027B681B6842449A60B2E10010014004
:102A0000001401401F85EB517B681B68D74A934235
:102A100005D07B681B68D64A934240F0D180FFF70F
:102A20003BF8B860BB689A464FF0000BD046D946D9
:102A300018EB080349EB09049846A14618EB0A086D
:102A400049EB0B094FF000014FF000024FEAC902B9
:102A500042EA58724FEAC801884691461AEB0805C7
:102A60004BEB09067B685B6819464FF000024FF09C
:102A700000034FF00004940044EA91748B001A465E
:102A8000234628463146FDF7ABFB03460C461A4663
:102A9000B84BA3FB02235B094FEA0318BB689B46B4
:102AA0004FF0000CD946E24619EB09034AEB0A0441
:102AB0009946A24619EB0B094AEB0C0A4FF00001AC
:102AC0004FF000024FEACA0242EA59724FEAC901C6
:102AD000894692461BEB09054CEB0A067B685B684E
:102AE00019464FF000024FF000034FF0000494002D
:102AF00044EA91748B001A46234628463146FDF776
:102B00006FFB03460C461A469A4BA3FB02135B0964
:102B1000642101FB03F3D31A1B013233954AA2FB54
:102B200003235B0903F0F0039844BB689B464FF016
:102B3000000CD946E24619EB09034AEB0A04994610
:102B4000A24619EB0B094AEB0C0A4FF000014FF0BB
:102B500000024FEACA0242EA59724FEAC9018946A5
:102B600092461BEB09054CEB0A067B685B6819462D
:102B70004FF000024FF000034FF00004940044EACD
:102B800091748B001A46234628463146FDF728FBF0
:102B900003460C461A46774BA3FB02135B096421DC
:102BA00001FB03F3D31A1B013233724AA2FB032346
:102BB0005B0903F00F027B681B6842449A60D0E017
:102BC000FEF756FFB860BB689A464FF0000BD04640
:102BD000D94618EB080349EB09049846A14618EBBF
:102BE0000A0849EB0B094FF000014FF000024FEAD1
:102BF000C90242EA58724FEAC801884691461AEB68
:102C000008054BEB09067B685B6819464FF000022C
:102C10004FF000034FF00004940044EA91748B00DD
:102C20001A46234628463146FDF7DAFA03460C4693
:102C30001A46504BA3FB02235B094FEA0318BB68FB
:102C40009B464FF0000CD946E24619EB09034AEBCC
:102C50000A049946A24619EB0B094AEB0C0A4FF0FD
:102C600000014FF000024FEACA0242EA59724FEAED
:102C7000C901894692461BEB09054CEB0A067B68A5
:102C80005B6819464FF000024FF000034FF000045C
:102C9000940044EA91748B001A4623462846314634
:102CA000FDF79EFA03460C461A46324BA3FB02136D
:102CB0005B09642101FB03F3D31A1B0132332D4A54
:102CC000A2FB03235B0903F0F0039844BB689B4617
:102CD0004FF0000CD946E24619EB09034AEB0A040F
:102CE0009946A24619EB0B094AEB0C0A4FF000017A
:102CF0004FF000024FEACA0242EA59724FEAC90194
:102D0000894692461BEB09054CEB0A067B685B681B
:102D100019464FF000024FF000034FF000049400FA
:102D200044EA91748B001A46234628463146FDF743
:102D300057FA03460C461A460E4BA3FB02135B09D7
:102D4000642101FB03F3D31A1B013233094AA2FBAE
:102D500003235B0903F00F027B681B6842449A60FF
:102D6000FFE700BF1437BD46BDE8F08F00100140FB
:102D7000001401401F85EB5180B485B000AFEFF324
:102D80000583BB60BB68002B0FD1EFF310837B6022
:102D90007B68002B09D1114B1B68022B09D1EFF383
:102DA00011833B603B68002B03D06FF00503FB6091
:102DB0000CE00A4B1B68002B05D1084B01221A605E
:102DC0000023FB6002E04FF0FF33FB60FB68184616
:102DD0001437BD465DF8047B704700BF300000200B
:102DE00080B584B000AFEFF30583BB60BB68002BF8
:102DF0000FD1EFF310837B607B68002B09D1114B5F
:102E00001B68022B09D1EFF311833B603B68002B59
:102E100003D06FF00503FB600EE00A4B1B68012B2B
:102E200007D1084B02221A6001F062FD0023FB600B
:102E300002E04FF0FF33FB60FB6818461037BD46D9
:102E400080BD00BF3000002080B592B004AFF860B4
:102E5000B9607A6000237B61EFF305837B627B6A54
:102E6000002B40F09480EFF310833B623B6A002B11
:102E700040F08D80484B1B68022B06D1EFF3118385
:102E8000FB61FB69002B40F08280FB68002B7ED049
:102E900080233B631823FB620023FB7607F11B03AF
:102EA0007B634FF0FF33BB627B68002B45D07B68B0
:102EB0001B68002B02D07B681B687B637B689B6967
:102EC000002B02D07B689B69FB62FB6A002B08D059
:102ED000FB6A382B05D87B685B6803F00103002B85
:102EE00001D0002354E07B685B69002B03D07B6832
:102EF0005B699B083B637B689B68002B0ED07B68FB
:102F0000DB685B2B0AD97B681B69002B06D07B68CA
:102F10005B69002B02D00123BB6210E07B689B68D9
:102F2000002B0CD17B68DB68002B08D17B681B6908
:102F3000002B04D10023BB6201E00023BB62BB6A0B
:102F4000012B10D17B681B697A6892680292019309
:102F5000FB6A0093BB683A6B796BF86801F000FB81
:102F600003467B6113E0BB6A002B10D13B6B9AB226
:102F700007F114030193FB6A0093BB68796BF8684F
:102F800001F047FB0346012B01D000237B617B69E5
:102F900018463837BD4680BD3000002080B586B069
:102FA00000AF7860EFF305833B613B69002B0FD1E5
:102FB000EFF31083FB60FB68002B09D10D4B1B68FE
:102FC000022B09D1EFF31183BB60BB68002B03D048
:102FD0006FF005037B6107E000237B617B68002BBA
:102FE00002D0786801F050FC7B6918461837BD465E
:102FF00080BD00BF3000002080B58CB002AFF8600B
:10300000B9607A6000237B62EFF30583BB61BB6923
:10301000002B40F08880EFF310837B617B69002BED
:1030200040F08180424B1B68022B05D1EFF31183E6
:103030003B613B69002B76D1FB68002B73D0BA68EB
:10304000FB689A426FD84FF0FF333B627B68002BDE
:1030500015D07B689B68002B06D07B68DB684F2B04
:1030600002D901233B620CE07B689B68002B08D1EE
:103070007B68DB68002B04D100233B6201E0002366
:103080003B623B6AB3F1FF3F4DD0FB68012B29D176
:103090003B6A012B0BD17B689A680323009313468C
:1030A00000220021012000F0D9FA786205E0032215
:1030B0000021012000F044FB78627B6A002B22D0C3
:1030C000BB68002B1FD0002300220021786A00F08B
:1030D000FDFB0346012B16D0786A01F070F800233F
:1030E0007B6210E03B6A012B08D17B689B681A4623
:1030F000B968F86800F084FB786204E0B968F868A1
:1031000000F0B3FB78627B6A002B0CD07B68002B4D
:1031100003D07B681B68FB6101E00023FB61F96958
:10312000786A01F097F97B6A18462837BD4680BD5A
:103130003000002080B588B000AF786039607B68CF
:10314000BB610023FB61BB69002B03D16FF003035C
:10315000FB614BE0EFF305837B617B69002B0FD1B3
:10316000EFF310833B613B69002B09D1224B1B68B5
:10317000022B28D1EFF31183FB60FB68002B22D0D8
:103180003B68002B03D06FF00303FB612DE00023AD
:10319000BB6007F108031A460021B86900F092FFEE
:1031A0000346012B03D06FF00203FB611DE0BB68F7
:1031B000002B1AD0114B4FF080521A60BFF34F8F83
:1031C000BFF36F8F11E03968B86900F073FE0346F2
:1031D000012B0BD03B68002B03D06FF00103FB6188
:1031E00004E06FF00203FB6100E000BFFB691846DA
:1031F0002037BD4680BD00BF3000002004ED00E058
:1032000080B588B000AF78607B68BB610023FB614C
:10321000BB69002B03D16FF00303FB613EE0EFF3CA
:1032200005837B617B69002B0FD1EFF310833B613A
:103230003B69002B09D11C4B1B68022B20D1EFF3FB
:103240001183FB60FB68002B1AD00023BB6007F1E1
:1032500008031946B86900F0C7FC0346012B03D0E8
:103260006FF00203FB6118E0BB68002B15D00F4B19
:103270004FF080521A60BFF34F8FBFF36F8F0CE097
:10328000002300220021B86900F020FB0346012B37
:1032900004D06FF00203FB6100E000BFFB69184639
:1032A0002037BD4680BD00BF3000002004ED00E0A7
:1032B00080B58CB002AFF860B9607A6000237B62A1
:1032C000EFF30583BB61BB69002B70D1EFF3108373
:1032D0007B617B69002B6AD1374B1B68022B05D1C0
:1032E000EFF311833B613B69002B60D1FB68002B3E
:1032F0005DD0BB68002B5AD04FF0FF333B627B6838
:10330000002B29D07B689B68002B12D07B68DB6880
:103310004F2B0ED97B681B69002B0AD07B685A693A
:10332000FB68B96801FB03F39A4202D301233B62B5
:1033300014E07B689B68002B10D17B68DB68002B56
:103340000CD17B681B69002B08D17B685B69002B63
:1033500004D100233B6201E000233B623B6A012B66
:103360000CD17B681A697B689968002300930B462F
:10337000B968F86800F072F9786208E03B6A002BDF
:1033800005D10022B968F86800F0DAF978627B6A42
:10339000002B0CD07B68002B03D07B681B68FB6183
:1033A00001E00023FB61F969786A01F053F87B6A58
:1033B00018462837BD4680BD3000002080B485B057
:1033C00000AFF860B9607A60FB68074A1A60BB68B2
:1033D000064A1A607B6880221A6000BF1437BD4617
:1033E0005DF8047B704700BF34000020900000208F
:1033F00080B485B000AFF860B9607A60FB68074AB6
:103400001A60BB68064A1A607B684FF480721A60C3
:1034100000BF1437BD465DF8047B70479002002062
:10342000EC02002080B483B000AF78607B6803F1C9
:1034300008027B685A607B684FF0FF329A607B68B5
:1034400003F108027B68DA607B6803F108027B689D
:103450001A617B6800221A6000BF0C37BD465DF818
:10346000047B704780B483B000AF78607B68002233
:103470001A6100BF0C37BD465DF8047B704780B40D
:1034800085B000AF786039607B685B68FB603B6843
:10349000FA685A60FB689A683B689A60FB689B68A8
:1034A0003A685A60FB683A689A603B687A681A61C1
:1034B0007B681B685A1C7B681A6000BF1437BD46C6
:1034C0005DF8047B704780B485B000AF78603960E8
:1034D0003B681B68BB60BB68B3F1FF3F03D17B68EF
:1034E0001B69FB600CE07B680833FB6002E0FB6853
:1034F0005B68FB60FB685B681B68BA689A42F6D23F
:10350000FB685A683B685A603B685B683A689A6037
:103510003B68FA689A60FB683A685A603B687A6868
:103520001A617B681B685A1C7B681A6000BF1437DD
:10353000BD465DF8047B704780B485B000AF78600D
:103540007B681B69FB607B685B687A6892689A603D
:103550007B689B687A6852685A60FB685B687A6827
:103560009A4203D17B689A68FB685A607B680022A4
:103570001A61FB681B685A1EFB681A60FB681B68AF
:1035800018461437BD465DF8047B704780B584B09B
:1035900000AF786039607B68FB60FB68002B09D165
:1035A0004FF0500383F31188BFF36F8FBFF34F8F3A
:1035B000BB60FEE702F0F2FBFB681A68FB68DB6B9E
:1035C000F968096C01FB03F31A44FB685A60FB6855
:1035D00000229A63FB681A68FB689A60FB681A68A5
:1035E000FB68DB6B013BF968096C01FB03F31A44D0
:1035F000FB68DA60FB68FF2283F84420FB68FF2247
:1036000083F845203B68002B14D1FB681B69002B15
:103610001AD0FB681033184601F0F0FB0346002B6C
:1036200012D00D4B4FF080521A60BFF34F8FBFF393
:103630006F8F09E0FB6810331846FFF7F3FEFB6855
:1036400024331846FFF7EEFE02F0D6FB012318469E
:103650001037BD4680BD00BF04ED00E080B58EB0E0
:1036600002AFF860B9607A603B60FB68002B09D15B
:103670004FF0500383F31188BFF36F8FBFF34F8F69
:10368000BB62FEE73B68002B09D14FF0500383F388
:103690001188BFF36F8FBFF34F8F7B62FEE77B68AC
:1036A000002B02D0BB68002B01D0012300E00023D7
:1036B000002B09D14FF0500383F31188BFF36F8FB4
:1036C000BFF34F8F3B62FEE77B68002B02D1BB68E4
:1036D000002B01D1012300E00023002B09D14FF082
:1036E000500383F31188BFF36F8FBFF34F8FFB61DC
:1036F000FEE750237B617B69502B09D04FF05003CC
:1037000083F31188BFF36F8FBFF34F8FBB61FEE769
:103710003B68FB62FB6A002B0DD0FB6A012283F839
:10372000462097F83820FB6A009313467A68B968F8
:10373000F86800F042F8FB6A18463037BD4680BD95
:1037400080B58AB002AFF860B9601346FB71FB68C0
:10375000002B09D14FF0500383F31188BFF36F8F13
:10376000BFF34F8F3B61FEE7BB68002B02D1002304
:10377000FB6104E0FB68BA6802FB03F3FB61FB69D1
:103780005033184602F024FCB861BB69002B0FD0FF
:10379000BB6950337B61BB69002283F84620FA790C
:1037A000BB69009313467A69B968F86800F005F8B8
:1037B000BB6918462037BD4680BD80B584B000AFD8
:1037C000F860B9607A60FB70BB68002B03D1BB69FD
:1037D000BA691A6002E0BB697A681A60BB69FA6864
:1037E000DA63BB69BA681A640121B869FFF7CEFED3
:1037F000BB69FA7883F84C2000BF1037BD4680BD06
:1038000080B58AB002AFF860B9607A60FB68002BBF
:1038100009D14FF0500383F31188BFF36F8FBFF3CB
:103820004F8FBB61FEE7BA68FB689A4209D94FF037
:10383000500383F31188BFF36F8FBFF34F8F7B610A
:10384000FEE7022300937B6800220021F868FFF75F
:1038500005FFF861FB69002B02D0FB69BA689A6327
:10386000FB6918462037BD4680BD80B586B000AFE5
:10387000786039607B68002B09D14FF0500383F3E7
:103880001188BFF36F8FBFF34F8F3B61FEE73A683C
:103890007B689A4209D94FF0500383F31188BFF334
:1038A0006F8FBFF34F8FFB60FEE702220021786825
:1038B000FFF746FF78617B69002B02D07B693A688D
:1038C0009A637B6918461837BD4680BD80B58EB0B7
:1038D00000AFF860B9607A603B6000237B63FB68EF
:1038E0003B633B6B002B09D14FF0500383F31188EE
:1038F000BFF36F8FBFF34F8FBB62FEE7BB68002B38
:1039000003D13B6B1B6C002B01D1012300E0002392
:10391000002B09D14FF0500383F31188BFF36F8F51
:10392000BFF34F8F7B62FEE73B68022B03D13B6BFB
:10393000DB6B012B01D1012300E00023002B09D117
:103940004FF0500383F31188BFF36F8FBFF34F8F96
:103950003B62FEE701F00EFC0346002B02D17B68C0
:10396000002B01D1012300E00023002B09D14FF0EF
:10397000500383F31188BFF36F8FBFF34F8FFB6149
:10398000FEE702F00BFA3B6B9A6B3B6BDB6B9A42E8
:1039900002D33B68022B29D13A68B968386B00F032
:1039A00048FCF8623B6B5B6A002B10D03B6B243306
:1039B000184601F023FA0346002B13D03F4B4FF07B
:1039C00080521A60BFF34F8FBFF36F8F0AE0FB6A1C
:1039D000002B07D0394B4FF080521A60BFF34F8F46
:1039E000BFF36F8F02F008FA012363E07B68002BBE
:1039F00003D102F001FA00235CE07B6B002B06D1BF
:103A000007F11403184601F05BFA01237B6302F00F
:103A1000F3F900F0D1FF02F0C1F93B6B93F84430A9
:103A20005BB2B3F1FF3F03D13B6B002283F844202C
:103A30003B6B93F845305BB2B3F1FF3F03D13B6B77
:103A4000002283F8452002F0D7F93A1D07F114034C
:103A50001146184601F04AFA0346002B24D1386B70
:103A600000F0DFFC0346002B18D03B6B10337A6864
:103A70001146184601F074F9386B00F06AFC00F04A
:103A8000A9FF0346002B7FF47CAF0C4B4FF0805214
:103A90001A60BFF34F8FBFF36F8F72E7386B00F080
:103AA00058FC00F097FF6CE7386B00F052FC00F018
:103AB00091FF002318463837BD4680BD04ED00E075
:103AC00080B58EB000AFF860B9607A603B60FB688B
:103AD0003B633B6B002B09D14FF0500383F31188FC
:103AE000BFF36F8FBFF34F8F7B62FEE7BB68002B86
:103AF00003D13B6B1B6C002B01D1012300E00023A1
:103B0000002B09D14FF0500383F31188BFF36F8F5F
:103B1000BFF34F8F3B62FEE73B68022B03D13B6B49
:103B2000DB6B012B01D1012300E00023002B09D125
:103B30004FF0500383F31188BFF36F8FBFF34F8FA4
:103B4000FB61FEE702F006FAEFF311824FF050033B
:103B500083F31188BFF36F8FBFF34F8FBA617B611F
:103B6000BB69FB623B6B9A6B3B6BDB6B9A4202D38C
:103B70003B68022B2CD13B6B93F8453087F82B30F8
:103B80003A68B968386B00F054FB97F92B30B3F101
:103B9000FF3F12D13B6B5B6A002B16D03B6B24338B
:103BA000184601F02BF90346002B0ED07B68002B42
:103BB0000BD07B6801221A6007E097F82B300133A5
:103BC000DBB25AB23B6B83F8452001237B6301E0F3
:103BD00000237B63FB6A3B613B6983F311887B6B4A
:103BE00018463837BD4680BD80B58EB000AF7860CE
:103BF00039607B683B633B6B002B09D14FF050036E
:103C000083F31188BFF36F8FBFF34F8F3B62FEE7E3
:103C10003B6B1B6C002B09D04FF0500383F31188D2
:103C2000BFF36F8FBFF34F8FFB61FEE73B6B1B68EA
:103C3000002B03D13B6B5B68002B01D1012300E01B
:103C40000023002B09D14FF0500383F31188BFF3F9
:103C50006F8FBFF34F8FBB61FEE702F07BF9EFF38D
:103C600011824FF0500383F31188BFF36F8FBFF3BE
:103C70004F8F7A613B617B69FB623B6B9B6BBB62E5
:103C80003B6BDB6BBA6A9A422BD23B6B93F84530A5
:103C900087F82730BB6A5A1C3B6B9A6397F9273029
:103CA000B3F1FF3F12D13B6B5B6A002B16D03B6B2D
:103CB0002433184601F0A2F80346002B0ED03B68CF
:103CC000002B0BD03B6801221A6007E097F82730E1
:103CD0000133DBB25AB23B6B83F8452001237B638F
:103CE00001E000237B63FB6AFB60FB6883F31188C0
:103CF0007B6B18463837BD4680BD000080B58CB060
:103D000000AFF860B9607A600023FB62FB68BB62B9
:103D1000BB6A002B09D14FF0500383F31188BFF326
:103D20006F8FBFF34F8F3B62FEE7BB68002B03D161
:103D3000BB6A1B6C002B01D1012300E00023002B88
:103D400009D14FF0500383F31188BFF36F8FBFF396
:103D50004F8FFB61FEE701F00DFA0346002B02D105
:103D60007B68002B01D1012300E00023002B09D147
:103D70004FF0500383F31188BFF36F8FBFF34F8F62
:103D8000BB61FEE702F00AF8BB6A9B6B7B627B6A51
:103D9000002B1FD0B968B86A00F0B5FA7B6A5A1ECA
:103DA000BB6A9A63BB6A1B69002B0FD0BB6A1033D6
:103DB000184601F023F80346002B07D03C4B4FF088
:103DC00080521A60BFF34F8FBFF36F8F02F014F869
:103DD000012369E07B68002B03D102F00DF800237A
:103DE00062E0FB6A002B06D107F11003184601F0D0
:103DF00067F80123FB6201F0FFFF00F0DDFD01F039
:103E0000CDFFBB6A93F844305BB2B3F1FF3F03D1FF
:103E1000BB6A002283F84420BB6A93F845305BB24A
:103E2000B3F1FF3F03D1BB6A002283F8452001F0C4
:103E3000E3FF3A1D07F110031146184601F056F84A
:103E40000346002B23D1B86A00F0D5FA0346002BB5
:103E500017D0BB6A24337A681146184600F080FFF9
:103E6000B86A00F076FA00F0B5FD0346002B89D160
:103E70000F4B4FF080521A60BFF34F8FBFF36F8F1D
:103E800080E7B86A00F065FA00F0A4FD7AE7B86A46
:103E900000F05FFA00F09EFDB86A00F0ACFA03464D
:103EA000002B3FF46FAF002318463037BD4680BD6E
:103EB00004ED00E080B58EB000AF7860396000237B
:103EC0007B637B68FB6200233B63FB6A002B09D1A9
:103ED0004FF0500383F31188BFF36F8FBFF34F8F01
:103EE0003B62FEE7FB6A1B6C002B09D04FF05003CE
:103EF00083F31188BFF36F8FBFF34F8FFB61FEE732
:103F000001F038F90346002B02D13B68002B01D1A8
:103F1000012300E00023002B09D14FF0500383F36D
:103F20001188BFF36F8FBFF34F8FBB61FEE701F0C6
:103F300035FFFB6A9B6BBB62BB6A002B24D0BB6A5C
:103F40005A1EFB6A9A63FB6A1B68002B04D101F0BE
:103F50008DFA0246FB6A5A60FB6A1B69002B0FD080
:103F6000FB6A1033184600F049FF0346002B07D0C8
:103F7000534B4FF080521A60BFF34F8FBFF36F8FD8
:103F800001F03AFF012396E03B68002B10D13B6B18
:103F9000002B09D04FF0500383F31188BFF36F8FCC
:103FA000BFF34F8F7B61FEE701F026FF002382E025
:103FB0007B6B002B06D107F10C03184600F080FF45
:103FC00001237B6301F018FF00F0F6FC01F0E6FE30
:103FD000FB6A93F844305BB2B3F1FF3F03D1FB6A55
:103FE000002283F84420FB6A93F845305BB2B3F1BA
:103FF000FF3F03D1FB6A002283F8452001F0FCFE5D
:104000003A4607F10C031146184600F06FFF0346CD
:10401000002B32D1F86A00F0EEF90346002B26D0CF
:10402000FB6A1B68002B09D101F0B8FEFB6A5B68D4
:10403000184601F0BDF8386301F0DEFEFB6A243358
:104040003A681146184600F08BFEF86A00F081F9D4
:1040500000F0C0FC0346002B7FF469AF184B4FF013
:1040600080521A60BFF34F8FBFF36F8F5FE7F86A1C
:1040700000F06FF900F0AEFC59E7F86A00F069F95A
:1040800000F0A8FCF86A00F0B6F90346002B3FF4F4
:104090004EAF3B6B002B0DD001F080FEF86A00F0B4
:1040A000B0F87862FB6A5B68796A184601F05AF9E1
:1040B00001F0A2FE002318463837BD4680BD00BF80
:1040C00004ED00E080B58EB000AFF860B9607A60B2
:1040D000FB683B633B6B002B09D14FF0500383F32C
:1040E0001188BFF36F8FBFF34F8F3B62FEE7BB6852
:1040F000002B03D13B6B1B6C002B01D1012300E093
:104100000023002B09D14FF0500383F31188BFF334
:104110006F8FBFF34F8FFB61FEE701F01BFFEFF3E3
:1041200011824FF0500383F31188BFF36F8FBFF3F9
:104130004F8FBA617B61BB69FB623B6B9B6BBB6260
:10414000BB6A002B2FD03B6B93F8443087F82730A5
:10415000B968386B00F0D7F8BB6A5A1E3B6B9A639C
:1041600097F92730B3F1FF3F12D13B6B1B69002B4E
:1041700016D03B6B1033184600F040FE0346002B70
:104180000ED07B68002B0BD07B6801221A6007E001
:1041900097F827300133DBB25AB23B6B83F84420E7
:1041A00001237B6301E000237B63FB6A3B613B6986
:1041B00083F311887B6B18463837BD4680BD80B5C8
:1041C00084B000AF78607B68FB60FB68002B09D18E
:1041D0004FF0500383F31188BFF36F8FBFF34F8FFE
:1041E000BB60FEE7F86800F05DF9FB6893F84630C5
:1041F000002B02D1F86801F0ADFF00BF1037BD46BB
:1042000080BD80B485B000AF78607B685B6A002BAE
:1042100006D07B681B6B1B68C3F13803FB6001E0B1
:104220000023FB60FB6818461437BD465DF8047B2D
:10423000704780B586B000AFF860B9607A6000233F
:104240007B61FB689B6B3B61FB681B6C002B0DD19A
:10425000FB681B68002B4DD1FB685B68184601F0BA
:1042600015F87861FB6800225A6043E07B68002BF8
:1042700019D1FB689868FB681B6C1A46B96802F094
:10428000BBF8FB689A68FB681B6C1A44FB689A6071
:10429000FB689A68FB685B689A422BD3FB681A68D4
:1042A000FB689A6026E0FB68D868FB681B6C1A46BE
:1042B000B96802F0A1F8FB68DA68FB681B6C5B4226
:1042C0001A44FB68DA60FB68DA68FB681B689A428C
:1042D00007D2FB685A68FB681B6C5B421A44FB6898
:1042E000DA607B68022B05D13B69002B02D03B6969
:1042F000013B3B613B695A1CFB689A637B6918462A
:104300001837BD4680BD80B582B000AF7860396097
:104310007B681B6C002B18D07B68DA687B681B6C91
:104320001A447B68DA607B68DA687B685B689A426B
:1043300003D37B681A687B68DA607B68D9687B681E
:104340001B6C1A46386802F057F800BF0837BD46A4
:1043500080BD80B584B000AF786001F01FFD7B6840
:1043600093F84530FB7311E07B685B6A002B12D039
:104370007B682433184600F041FD0346002B01D032
:1043800000F014FEFB7B013BDBB2FB7397F90F30AF
:10439000002BE9DC00E000BF7B68FF2283F84520AA
:1043A00001F02AFD01F0FAFC7B6893F84430BB73FE
:1043B00011E07B681B69002B12D07B681033184614
:1043C00000F01CFD0346002B01D000F0EFFDBB7B8D
:1043D000013BDBB2BB7397F90E30002BE9DC00E048
:1043E00000BF7B68FF2283F8442001F005FD00BF79
:1043F0001037BD4680BD80B584B000AF786001F055
:10440000CDFC7B689B6B002B02D10123FB6001E09C
:104410000023FB6001F0F0FCFB6818461037BD4636
:1044200080BD80B584B000AF786001F0B7FC7B68D8
:104430009A6B7B68DB6B9A4202D10123FB6001E03F
:104440000023FB6001F0D8FCFB6818461037BD461E
:1044500080BD000080B485B000AF78603960002373
:10446000FB6014E00E4AFB6852F83330002B0BD18E
:104470000B49FB683A6841F83320094AFB68DB00C6
:1044800013447A685A6005E0FB680133FB60FB68FF
:10449000072BE7D900BF1437BD465DF8047B704792
:1044A000D049002080B485B000AF78600023FB6065
:1044B00016E0104AFB68DB0013445B687A689A4296
:1044C0000BD10C4AFB68002142F83310094AFB6803
:1044D000DB00134400225A6005E0FB680133FB60F7
:1044E000FB68072BE5D900BF1437BD465DF8047B98
:1044F000704700BFD049002080B586B000AFF8609B
:10450000B9607A60FB687B6101F048FC7B6993F8D5
:1045100044305BB2B3F1FF3F03D17B69002283F8E3
:1045200044207B6993F845305BB2B3F1FF3F03D180
:104530007B69002283F8452001F05EFC7B699B6B60
:10454000002B06D17B6924337A68B968184600F0DD
:104550002BFC7869FFF7FDFE00BF1837BD4680BD14
:1045600080B58EB004AFF860B9607A603B607B6B59
:10457000002B09D14FF0500383F31188BFF36F8FE5
:10458000BFF34F8F3B62FEE7BB6B002B09D14FF0AF
:10459000500383F31188BFF36F8FBFF34F8FFB611D
:1045A000FEE75C233B613B695C2B09D04FF0500375
:1045B00083F31188BFF36F8FBFF34F8FBB61FEE7AB
:1045C000BB6B002B1ED07B6B002B1BD0BB6B7B62AD
:1045D0007B6A7A6B1A637B6A022283F85920002374
:1045E00003937B6A029307F1140301933B6B0093DF
:1045F0003B687A68B968F86800F050F8786A00F0AB
:10460000D3F801E000237B617B6918462837BD465B
:1046100080BD80B58CB004AFF860B9603B601346D4
:10462000FB80FB889B00184601F0D2FC78617B6917
:10463000002B0ED05C2001F0CBFCF861FB69002B55
:1046400003D0FB697A691A6305E0786901F082FD9D
:1046500001E00023FB61FB69002B17D0FB690022FE
:1046600083F85920FA8800230393FB690293FB6ABD
:104670000193BB6A00933B68B968F86800F00EF8D4
:10468000F86900F091F80123BB6102E04FF0FF33BD
:10469000BB61BB6918462037BD4680BD80B588B078
:1046A00000AFF860B9607A603B603B6B186B7B6869
:1046B0009B001A46A52101F0AAFE3B6B1A6B7B6892
:1046C00003F18043013B9B001344BB61BB6923F0B2
:1046D0000703BB61BB6903F00703002B09D04FF050
:1046E000500383F31188BFF36F8FBFF34F8F7B614C
:1046F000FEE70023FB6112E0BA68FB6913441978F6
:104700003A6BFB69134434330A461A70BA68FB6982
:1047100013441B78002B06D0FB690133FB61FB6956
:104720000F2BE9D900E000BF3B6B002283F8432048
:10473000BB6A372B01D93723BB623B6BBA6ADA629B
:104740003B6BBA6ADA643B6B00221A653B6B04333D
:104750001846FEF787FE3B6B18331846FEF782FEBD
:104760003B6B3A6B1A61BB6AC3F138023B6B9A61CF
:104770003B6B3A6B5A623B6B00225A653B6B0022E3
:1047800083F858203A68F968B86901F0E1F90246FF
:104790003B6B1A60FB6A002B02D0FB6A3A6B1A6013
:1047A00000BF2037BD4680BD80B582B000AF7860C5
:1047B00001F0F4FA2D4B1B6801332C4A13602C4B8B
:1047C0001B68002B09D12A4A7B681360274B1B68A2
:1047D000012B10D100F00EFC0DE0264B1B68002BC6
:1047E00009D1234B1B68DA6A7B68DB6A9A4202D8DC
:1047F0001F4A7B681360204B1B6801331E4A1360FD
:104800001D4B1A687B685A647B68DA6A1B4B1B680D
:104810009A4203D97B68DB6A184A13607B68DA6ABC
:1048200013469B0013449B00154A1A447B680433CB
:1048300019461046FEF723FE01F0DEFA0D4B1B6809
:10484000002B0ED00A4B1B68DA6A7B68DB6A9A423F
:1048500007D20C4B4FF080521A60BFF34F8FBFF35B
:104860006F8F00BF0837BD4680BD00BFC00B002062
:10487000EC060020CC0B0020DC0B0020C80B002035
:10488000F006002004ED00E080B584B000AF786051
:104890000023FB607B68002B16D0134B1B68002B9A
:1048A00009D04FF0500383F31188BFF36F8FBFF32C
:1048B0004F8FBB60FEE700F07FF80021786800F0C2
:1048C000E9FD00F087F8F860FB68002B07D1074B83
:1048D0004FF080521A60BFF34F8FBFF36F8F00BF4E
:1048E0001037BD4680BD00BFE80B002004ED00E09E
:1048F00080B58AB004AF0023BB6000237B603A46DA
:10490000391D07F108031846FEF758FD39687B6822
:10491000BA68029201930023009300230A462049BB
:104920002048FFF71DFE02461F4B1A601E4B1B68F6
:10493000002B02D001237B6101E000237B617B69B6
:10494000012B02D100F0FAFD78617B69012B15D1B2
:104950004FF0500383F31188BFF36F8FBFF34F8F76
:104960003B61124B4FF0FF321A60114B01221A606B
:10497000104B00221A6001F073F90DE07B69B3F16E
:10498000FF3F09D14FF0500383F31188BFF36F8FBE
:10499000BFF34F8FFB60FEE700BF1837BD4680BDF9
:1049A00010650008C54F0008E40B0020E00B002054
:1049B000CC0B0020C40B002080B400AF044B1B685C
:1049C0000133034A136000BFBD465DF8047B7047A6
:1049D000E80B002080B584B000AF0023FB6000230B
:1049E000BB60414B1B68002B09D14FF0500383F390
:1049F0001188BFF36F8FBFF34F8F3B60FEE701F06D
:104A0000CDF9394B1B68013B374A1360364B1B68A5
:104A1000002B62D1354B1B68002B5ED02FE0344B4E
:104A2000DB68DB68FB60FB6818331846FEF784FD23
:104A3000FB6804331846FEF77FFDFB68DA6A2D4BEE
:104A40001B689A4203D9FB68DB6A2A4A1360FB6839
:104A5000DA6A13469B0013449B00274A1A44FB68FA
:104A6000043319461046FEF70AFDFB68DA6A234B49
:104A70001B68DB6A9A4202D3214B01221A601C4B4D
:104A80001B68002BCBD1FB68002B01D000F04CFB46
:104A90001C4B1B687B607B68002B10D000F046F835
:104AA0000346002B02D0164B01221A607B68013BA3
:104AB0007B607B68002BF1D1124B00221A60104BF7
:104AC0001B68002B09D00123BB600F4B4FF08052B5
:104AD0001A60BFF34F8FBFF36F8F01F08DF9BB6882
:104AE00018461037BD4680BDE80B0020C00B0020E3
:104AF000800B0020C80B0020F0060020EC060020F0
:104B0000D40B0020D00B002004ED00E080B483B073
:104B100000AF054B1B687B607B6818460C37BD46B1
:104B20005DF8047B704700BFC40B002080B586B0E1
:104B300000AF00237B61514B1B68002B40F08D8040
:104B40004F4B1B6801333B614D4A3B6913603B6926
:104B5000002B1FD14B4B1B681B68002B09D04FF05B
:104B6000500383F31188BFF36F8FBFF34F8F3B6008
:104B7000FEE7444B1B68FB60434B1B68414A1360D4
:104B8000414AFB681360414B1B6801333F4A136085
:104B900000F0CAFA3E4B1B683A699A424ED3394B31
:104BA0001B681B68002B01D1012300E00023002BB0
:104BB00004D0374B4FF0FF321A603FE0314B1B6897
:104BC000DB68DB68BB60BB685B687B603A697B68FD
:104BD0009A4203D22E4A7B6813602FE0BB680433ED
:104BE0001846FEF7A9FCBB689B6A002B04D0BB6883
:104BF00018331846FEF7A0FCBB68DA6A254B1B6821
:104C00009A4203D9BB68DB6A224A1360BB68DA6A3E
:104C100013469B0013449B001F4A1A44BB6804338D
:104C200019461046FEF72BFCBB68DA6A1B4B1B6863
:104C3000DB6A9A42B3D301237B61B0E7174B1B6851
:104C4000DA6A154913469B0013449B000B441B680A
:104C5000012B07D901237B6104E0114B1B68013351
:104C60000F4A13600F4B1B68002B01D001237B619F
:104C70007B6918461837BD4680BD00BFE80B002091
:104C8000C40B0020780B00207C0B0020D80B0020E8
:104C9000E00B0020C80B0020F0060020EC060020EE
:104CA000D00B0020D40B002080B485B000AF274B80
:104CB0001B68002B03D0264B01221A6040E0244BD6
:104CC00000221A60234B1B68FB600FE0FB68002B7F
:104CD00009D14FF0500383F31188BFF36F8FBFF3F7
:104CE0004F8F7B60FEE7FB68013BFB601A49FA6867
:104CF00013469B0013449B000B441B68002BE5D01C
:104D0000FA6813469B0013449B00134A1344BB608C
:104D1000BB685B685A68BB685A60BB685A68BB6806
:104D200008339A4204D1BB685B685A68BB685A6012
:104D3000BB685B68DB68094A1360064AFB6813605E
:104D400000BF1437BD465DF8047B7047E80B0020B8
:104D5000D40B0020C80B0020F0060020EC06002039
:104D600080B584B000AF786039607B68002B09D1D2
:104D70004FF0500383F31188BFF36F8FBFF34F8F52
:104D8000FB60FEE7074B1B68183319467868FEF78F
:104D90009AFB0121386800F07DFB00BF1037BD464B
:104DA00080BD00BFEC06002080B586B000AFF86083
:104DB000B9607A60FB68002B09D14FF0500383F390
:104DC0001188BFF36F8FBFF34F8F7B61FEE70A4BF4
:104DD0001B6818331946F868FEF751FB7B68002BF7
:104DE00002D04FF0FF33BB607968B86800F052FB27
:104DF00000BF1837BD4680BDEC06002080B586B0E8
:104E000000AF78607B68DB68DB683B613B69002B47
:104E100009D14FF0500383F31188BFF36F8FBFF3B5
:104E20004F8FFB60FEE73B6918331846FEF784FBA3
:104E30001D4B1B68002B1DD13B6904331846FEF740
:104E40007BFB3B69DA6A194B1B689A4203D93B69C1
:104E5000DB6A164A13603B69DA6A13469B00134407
:104E60009B00134A1A443B69043319461046FEF767
:104E700006FB05E03B69183319460E48FEF7FFFABA
:104E80003B69DA6A0C4B1B68DB6A9A4205D901233D
:104E90007B610A4B01221A6001E000237B617B6980
:104EA00018461837BD4680BDE80B0020C80B00200F
:104EB000F0060020800B0020EC060020D40B002020
:104EC00080B483B000AF7860064B1A687B681A60C4
:104ED000054B1A687B685A6000BF0C37BD465DF809
:104EE000047B7047D80B0020C40B002080B588B02D
:104EF00000AF786039607B68002B09D14FF0500318
:104F000083F31188BFF36F8FBFF34F8F3B61FEE7D1
:104F10003B68002B09D14FF0500383F31188BFF396
:104F20006F8FBFF34F8FFB60FEE700F037FF1D4B25
:104F30001B68BB617B685B68BA69D31A7B613B689D
:104F40001B68B3F1FF3F02D10023FB6123E07B68C4
:104F50001A68154B1B689A4207D07B685B68BA6970
:104F60009A4202D30123FB6115E03B681B687A6912
:104F70009A420BD23B681A687B69D21A3B681A6066
:104F80007868FFF79DFF0023FB6104E03B68002287
:104F90001A600123FB6100F02FFFFB6918462037E0
:104FA000BD4680BDC40B0020D80B002080B400AFEC
:104FB000034B01221A6000BFBD465DF8047B7047B9
:104FC000D40B002080B582B000AF786000F052F8BA
:104FD000064B1B68012BF9D9054B4FF080521A6024
:104FE000BFF34F8FBFF36F8FF0E700BFF0060020D5
:104FF00004ED00E080B582B000AF00237B600CE0E0
:105000007A6813469B0013449B00124A13441846C7
:10501000FEF708FA7B6801337B607B68372BEFD99A
:105020000D48FEF7FFF90D48FEF7FCF90C48FEF7B6
:10503000F9F90C48FEF7F6F90B48FEF7F3F90B4BBC
:10504000054A1A600A4B054A1A6000BF0837BD4678
:1050500080BD00BFF0060020500B0020640B002034
:10506000800B0020940B0020AC0B0020780B00205C
:105070007C0B002080B582B000AF19E000F08EFEFE
:105080000F4BDB68DB687B607B6804331846FEF7F8
:1050900053FA0C4B1B68013B0A4A13600A4B1B680E
:1050A000013B094A136000F0A7FE786800F00EF893
:1050B000054B1B68002BE1D100BF0837BD4680BD02
:1050C000940B0020C00B0020A80B002080B584B0FA
:1050D00000AF78607B6893F85930002B08D17B686B
:1050E0001B6B184601F036F8786801F033F817E0CA
:1050F0007B6893F85930012B03D1786801F02AF8C6
:105100000EE07B6893F85930022B09D04FF0500322
:1051100083F31188BFF36F8FBFF34F8FFB60FEE700
:1051200000BF1037BD4680BD80B483B000AF0F4BC9
:105130001B681B68002B01D1012300E00023002B1A
:1051400004D00B4B4FF0FF321A6008E0074B1B688E
:10515000DB68DB687B607B685B68054A136000BFC7
:105160000C37BD465DF8047B704700BF780B00200C
:10517000E00B002080B483B000AF0B4B1B68002B0A
:1051800002D101237B6008E0084B1B68002B02D191
:1051900002237B6001E000237B607B6818460C37AC
:1051A000BD465DF8047B7047CC0B0020E80B002067
:1051B00080B584B000AF78607B68BB600023FB6083
:1051C0007B68002B56D0BB68DA6A2D4B1B68DB6A04
:1051D0009A4246D2BB689B69002B06DB284B1B68B2
:1051E000DB6AC3F13802BB689A61BB685969BB6866
:1051F000DA6A13469B0013449B00224A13449942E7
:1052000001D1012300E00023002B22D0BB6804332E
:105210001846FEF791F91A4B1B68DA6ABB68DA6226
:10522000BB68DA6A184B1B689A4203D9BB68DB6A11
:10523000154A1360BB68DA6A13469B0013449B004F
:10524000104A1A44BB68043319461046FEF717F992
:1052500004E00B4B1B68DA6ABB68DA620123FB606F
:1052600008E0BB68DA6C064B1B68DB6A9A4201D225
:105270000123FB60FB6818461037BD4680BD00BFA8
:10528000EC060020F0060020C80B002080B586B098
:1052900000AF78607B683B6100237B617B68002BFB
:1052A00054D02D4B1B683A699A4209D04FF05003F5
:1052B00083F31188BFF36F8FBFF34F8FFB60FEE75F
:1052C0003B691B6D002B09D14FF0500383F311880C
:1052D000BFF36F8FBFF34F8FBB60FEE73B691B6D62
:1052E0005A1E3B691A653B69DA6A3B69DB6C9A4274
:1052F0002CD03B691B6D002B28D13B690433184629
:10530000FEF71AF93B69DA6C3B69DA623B69DB6AE2
:10531000C3F138023B699A613B69DA6A0F4B1B683B
:105320009A4203D93B69DB6A0C4A13603B69DA6A2B
:1053300013469B0013449B00094A1A443B690433FB
:1053400019461046FEF79BF801237B617B691846DE
:105350001837BD4680BD00BFEC060020C80B0020FA
:10536000F006002080B588B000AF786039607B68B7
:10537000BB6101237B617B68002B6DD0BB691B6D1A
:10538000002B09D14FF0500383F31188BFF36F8FC7
:10539000BFF34F8FFB60FEE7BB69DB6C3A689A4254
:1053A00002D93B68FB6102E0BB69DB6CFB61BB6956
:1053B000DB6AFA699A424FD0BB691B6D7A699A42DF
:1053C0004AD1274B1B68BA699A4209D14FF0500362
:1053D00083F31188BFF36F8FBFF34F8FBB60FEE77E
:1053E000BB69DB6A3B61BB69FA69DA62BB699B69CD
:1053F000002B04DBFB69C3F13802BB699A61BB690E
:1054000059693A6913469B0013449B00154A13449B
:10541000994201D1012300E00023002B1CD0BB697D
:1054200004331846FEF788F8BB69DA6A0E4B1B682E
:105430009A4203D9BB69DB6A0B4A1360BB69DA6A1B
:1054400013469B0013449B00064A1A44BB6904336D
:1054500019461046FEF713F800BF2037BD4680BD41
:10546000EC060020F0060020C80B002080B400AF3E
:10547000074B1B68002B04D0054B1B681A6D0132CB
:105480001A65034B1B681846BD465DF8047B7047E0
:10549000EC06002080B584B000AF78603960214B05
:1054A0001B68FB60204B1B6804331846FEF744F86A
:1054B0007B68B3F1FF3F0AD13B68002B07D01A4B42
:1054C0001B68043319461948FDF7D9FF26E0FA682E
:1054D0007B681344BB60144B1B68BA685A60BA6897
:1054E000FB689A4209D2124B1A680F4B1B680433AF
:1054F00019461046FDF7E7FF10E00E4B1A680A4BFD
:105500001B68043319461046FDF7DDFF0A4B1B6884
:10551000BA689A4202D2084ABB68136000BF1037CB
:10552000BD4680BDC40B0020EC060020AC0B002063
:105530007C0B0020780B0020E00B002080B58AB0A7
:1055400004AF00237B6100F0C3FA1C4B1B68002BE7
:1055500021D00023FB600023BB603A1D07F1080146
:1055600007F10C031846FDF743FF7968BB68FA683A
:10557000029201930223009300230A461049114826
:10558000FEF7EEFF0246104B1A600F4B1B68002B14
:1055900001D001237B617B69002B09D14FF05003BF
:1055A00083F31188BFF36F8FBFF34F8F3B61FEE72B
:1055B0007B6918461837BD4680BD00BF1C0C002013
:1055C00018650008E5560008200C002080B58AB058
:1055D00000AFF860B9607A603B6000237B62FB68D3
:1055E000002B09D14FF0500383F31188BFF36F8F65
:1055F000BFF34F8F3B62FEE7194B1B68002B2AD08D
:10560000BB683B617B687B61FB68BB61BB68052B4A
:1056100018DCFFF7AFFD0346022B09D1104B1868C9
:1056200007F1100100233A6BFEF750F9786212E09F
:105630000B4B186807F1100100230022FEF746F912
:10564000786208E0064B186807F1100100233A68F9
:10565000FEF736FA78627B6A18462837BD4680BD69
:105660001C0C002080B588B002AF786039601C4BFC
:105670001B68DB68DB687B617B6904331846FDF7D8
:105680005BFF7B69DB69012B21D17B699A697B68B0
:10569000D1187B683A68786900F0C8F80346002B97
:1056A00015D00023009300237A6800217869FFF762
:1056B0008DFF38613B69002B09D14FF0500383F314
:1056C0001188BFF36F8FBFF34F8FFB60FEE77B69DD
:1056D0005B6A7869984700BF1837BD4680BD00BF38
:1056E000140C002080B584B000AF786007F1080387
:1056F000184600F057F8F860BB681946F86800F0E3
:1057000003F800F0D5F8F1E780B584B000AF786019
:105710003960FFF751F907F10803184600F066F801
:10572000F860BB68002B30D13B68002B0AD17A6847
:10573000FB689A4206D8FFF74DF9F9687868FFF7D9
:1057400091FF24E03B68002B08D0134B1B681B68BB
:10575000002B0CBF01230023DBB23B600F4B18680A
:105760007A68FB68D31A3A681946FEF7C5FEFFF758
:1057700031F90346002B0AD1094B4FF080521A60D1
:10578000BFF34F8FBFF36F8F01E0FFF723F900BF27
:105790001037BD4680BD00BF180C00201C0C002037
:1057A00004ED00E080B485B000AF78600E4B1B685C
:1057B0001B68002B0CBF01230023DBB21A467B6859
:1057C0001A607B681B68002B05D1074B1B68DB68E0
:1057D0001B68FB6001E00023FB60FB681846143780
:1057E000BD465DF8047B7047140C002080B584B082
:1057F00000AF7860FFF78AF9F8600B4B1B68FA6816
:105800009A4205D200F004F97B6801221A6002E096
:105810007B6800221A60044AFB681360FB68184624
:105820001037BD4680BD00BF240C002080B586B077
:1058300000AFF860B9607A603B6000237B61FB6871
:10584000BA685A60FB68FA681A61BA687B689A425B
:1058500012D87A683B68D21AFB689B699A4202D3D5
:1058600001237B611BE0104B1A68FB680433194667
:105870001046FDF728FE12E07A683B689A4206D28D
:10588000BA683B689A4202D301237B6107E0074B69
:105890001A68FB68043319461046FDF714FE7B694D
:1058A00018461837BD4680BD180C0020140C002087
:1058B00080B58EB002AF99E07B68002B17DA3B1DF4
:1058C0000433FB62FB6A002B09D14FF0500383F3D2
:1058D0001188BFF36F8FBFF34F8FFB61FEE7FB6A49
:1058E0001B68FA6A5068FA6A9268114698477B68A2
:1058F000002B7ADBFB68BB62BB6A5B69002B04D0C0
:10590000BB6A04331846FDF717FE3B461846FFF7FF
:105910006DFF78627B68092B68D801A252F823F0EA
:10592000495900084959000849590008ED5900082B
:10593000A3590008D95900084959000849590008D5
:10594000ED590008A3590008BA68BB6A9B69D118D1
:10595000BB687A6AB86AFFF769FF0346002B45D037
:10596000BB6A5B6AB86A9847BB6ADB69012B3DD1A9
:10597000BA68BB6A9B691A44002300930023002184
:10598000B86AFFF723FE38623B6A002B2ED14FF036
:10599000500383F31188BFF36F8FBFF34F8FBB6149
:1059A000FEE7BA68BB6A9A61BB6A9B69002B09D1A2
:1059B0004FF0500383F31188BFF36F8FBFF34F8F06
:1059C0007B61FEE7BB6A9A697B6AD1187B6A7A6A57
:1059D000B86AFFF72BFF09E0BB6A93F82C30002B65
:1059E00004D1B86A00F0B6FB00E000BF074B1B68AB
:1059F000391D00221846FEF781F90346002B7FF47B
:105A00005BAF00BF3037BD4680BD00BF1C0C00201F
:105A100080B588B002AF44E02B4B1B68DB681B6885
:105A20003B61294B1B68DB68DB68FB60FB68043368
:105A30001846FDF781FDFB685B6AF8689847FB68CC
:105A4000DB69012B2DD1FB689B693A691344BB606C
:105A5000BA683B699A420ED9FB68BA685A60FB681B
:105A6000FA681A61184B1A68FB6804331946104625
:105A7000FDF729FD15E00023009300233A6900217A
:105A8000F868FFF7A3FD78607B68002B09D14FF021
:105A9000500383F31188BFF36F8FBFF34F8F3B60C9
:105AA000FEE7094B1B681B68002BB5D1064B1B6832
:105AB0007B61064B1B68044A1360044A7B691360D0
:105AC00000BF1837BD4680BD140C0020180C002004
:105AD00080B582B002AF00F061F9154B1B68002B56
