:020000040800F2
:1000000000000220090B0008810A00088F0A00087E
:10001000950A00089B0A0008A10A000800000000D9
:10002000000000000000000000000000614C00081B
:10003000A70A000800000000A14E0008094F0008B0
:10004000590B0008590B0008590B0008590B000800
:10005000590B0008590B0008590B0008590B0008F0
:10006000590B0008590B0008590B0008590B0008E0
:10007000590B0008590B0008590B0008590B0008D0
:10008000590B0008590B0008590B0008590B0008C0
:10009000590B0008590B0008590B0008590B0008B0
:1000A000590B0008B50A0008590B0008590B000845
:1000B000590B0008590B0008590B0008590B000890
:1000C000590B0008590B0008590B0008590B000880
:1000D000590B0008C90A0008590B0008590B000801
:1000E000590B0008590B0008590B0008590B000860
:1000F000590B0008590B0008590B0008590B000850
:10010000590B0008590B0008590B0008590B00083F
:10011000590B0008590B0008590B0008590B00082F
:10012000590B0008590B0008590B0008590B00081F
:10013000590B0008590B0008590B0008590B00080F
:10014000590B0008590B0008590B0008590B0008FF
:10015000590B0008590B0008590B0008590B0008EF
:10016000590B0008590B0008590B0008590B0008DF
:10017000590B0008590B0008590B0008000000003B
:08018000590B0008590B00089F
:1001900010B5054C237833B9044B13B10448AFF3C1
:1001A00000800123237010BD10000020000000001B
:1001B0003C54000808B5034B1BB103490348AFF397
:1001C000008008BD00000000140000203C5400081E
:1001D00053B94AB9002908BF00281CBF4FF0FF31AE
:1001E0004FF0FF3000F072B9ADF1080C6DE904CEAC
:1001F00000F006F8DDF804E0DDE9022304B0704702
:100200002DE9F047089E04468846002B4BD18A42D0
:10021000154667D9B2FA82F24AB1C2F1200701FA53
:1002200002F320FA07F7954047EA030894404FEAA3
:10023000154E230CB8FBFEF71FFA85FC0EFB178842
:1002400043EA084307FB0CF1994209D9EB1807F17F
:10025000FF3080F01B81994240F21881023F2B440D
:100260005B1AA4B2B3FBFEF00EFB103344EA034466
:1002700000FB0CFCA44509D92C1900F1FF3380F0D8
:100280000781A44540F2048102382C4440EA07402B
:10029000A4EB0C0400271EB1D4400023C6E90043A0
:1002A0003946BDE8F0878B4209D9002E00F0EB807B
:1002B0000027C6E9000138463946BDE8F087B3FAA1
:1002C00083F7002F47D18B4202D3824200F2FA809B
:1002D000841A61EB030301209846002EE0D0C6E9A2
:1002E0000048DDE702B9FFDEB2FA82F2002A40F0F0
:1002F0008F80491B4FEA154E1FFA85F80127B1FB85
:10030000FEFC230C0EFB1C1143EA014308FB0CF11D
:10031000994207D9EB180CF1FF3002D2994200F252
:10032000CD808446591AA3B2B1FBFEF00EFB101427
:1003300043EA044408FB00F8A04507D92C1900F152
:10034000FF3302D2A04500F2B6801846A4EB0804A1
:1003500040EA0C409FE7C7F1200CBB4022FA0CFE9C
:100360004EEA030E01FA07F420FA0CF521FA0CF319
:100370004FEA1E482543B3FBF8F92C0C08FB193350
:100380001FFA8EFA44EA034309FB0AF49C4202FA7C
:1003900007F200FA07F10BD91EEB030309F1FF3056
:1003A00080F087809C4240F28480A9F10209734466
:1003B0001B1BADB2B3FBF8F008FB103345EA034456
:1003C00000FB0AFAA24508D91EEB040400F1FF3332
:1003D0006BD2A24569D90238744440EA0940A0FBB7
:1003E0000289A4EB0A044C45C2464B4654D351D073
:1003F000002E69D0B1EB0A0564EB030404FA0CFC8F
:10040000FD40FC404CEA0505C6E90054002747E7DB
:10041000C2F1200320FA03F7954001FA02F021FA15
:1004200003F34FEA154E3843010CB3FBFEF71FFAF6
:1004300085F80EFB173341EA034107FB08F38B42B3
:1004400004FA02F407D9691807F1FF3C2FD28B4256
:100450002DD9023F2944CB1A81B2B3FBFEF00EFB2B
:10046000103341EA034100FB08F38B4207D96918B6
:1004700000F1FF3C17D28B4215D902382944C91A22
:1004800040EA07473BE73746304609E70746E7E6D5
:100490001846FBE64145ABD2B8EB020A69EB0E0207
:1004A00001381346A4E76046E9E7184695E7674632
:1004B000D1E781467CE702382C4447E7ACF1020CD7
:1004C0002B442FE7384608E73746E9E6704700BF78
:1004D00080B485B000AFF860B9607A60FB68074A05
:1004E0001A60BB68064A1A607B6880221A6000BFE7
:1004F0001437BD465DF8047B704700BF2C00002018
:1005000080000020B0B598B000AF00F027FB00F0ED
:1005100059F800F0DFF800F0B3F80023BB650023C2
:10052000FB6507F158030121184602F06CFC0246F6
:100530001D4B1A601D4B07F13C041D460FCD0FC427
:1005400095E8070084E8070007F13C0300211846FE
:1005500002F0F9FB0246164B1A60164B07F1200415
:100560001D460FCD0FC495E8070084E8070007F18A
:1005700020030021184602F0E6FB02460E4B1A60EB
:100580000E4B3C1D1D460FCD0FC495E8070084E8B7
:1005900007003B1D0021184602F0D5FB0246084B20
:1005A0001A6002F0C9FBFEE7144000206054000806
:1005B000CC3F00208854000810400020B0540008B0
:1005C0001840002080B594B000AF07F1200330221E
:1005D0000021184604F029FF07F10C0300221A60DD
:1005E0005A609A60DA601A610023BB60224B1B6C70
:1005F000214A43F0805313641F4B1B6C03F080535C
:10060000BB60BB6800237B601C4B1B681B4A43F428
:1006100080431360194B1B6803F480437B607B6845
:1006200002233B620123FB6210233B630023BB6375
:1006300007F12003184600F0BDFD0346002B01D052
:1006400000F042F90F23FB6000233B6100237B6134
:100650000023BB610023FB6107F10C030021184656
:1006600001F018F80346002B01D000F02DF900BF6F
:100670005037BD4680BD00BF0038024000700040CA
:1006800080B500AF114B124A1A60104B4FF416524E
:100690005A600E4B00229A600C4B0022DA600B4B22
:1006A00000221A61094B0C225A61084B00229A6100
:1006B000064B0022DA61054801F028FC0346002BB6
:1006C00001D000F001F900BF80BD00BFD03F002085
:1006D0000010014080B588B000AF07F10C03002284
:1006E0001A605A609A60DA601A610023BB601E4B80
:1006F0001B6B1D4A43F0100313631B4B1B6B03F072
:100700001003BB60BB6800237B60174B1B6B164A52
:1007100043F001031363144B1B6B03F001037B6075
:100720007B680022C021114800F010FD1823FB60F7
:1007300000233B6100237B6107F10C0319460C4841
:1007400000F052FBC023FB6001233B6100237B616F
:100750000023BB6107F10C031946044800F044FB79
:1007600000BF2037BD4680BD003802400000024077
:1007700000100240B0B58EB000AF7860174B07F1A3
:100780000C041D460FCD0FC40FCD0FC495E8070014
:1007900003C422800234130C2370114B1B684FF4E6
:1007A0007A71184602F062FB07F10C014FF47A737C
:1007B0002B220C4801F0F7FB00BF10210A4800F083
:1007C000ADFC0346002BF8D0054B1B68184602F021
:1007D0009BFB012002F003FBD0E700BFCC540008D4
:1007E00014400020D03F00200010024080B584B0AB
:1007F00000AF7860104BBB60104B1B684FF47A71F0
:10080000184602F033FBF86007F108014FF47A73E1
:1008100004220B4801F0C7FBFB68002B04D1074BF7
:100820001B68184602F070FB4021064800F0A7FC48
:10083000642002F0D4FADDE7320D0A0014400020F3
:10084000D03F00200000024080B584B000AF786047
:10085000104BBB60104B1B684FF47A71184602F0C6
:1008600005FBF86007F108014FF47A7304220B4886
:1008700001F099FBFB68002B04D1074B1B6818465D
:1008800002F042FB8021064800F079FC642002F06F
:10089000A6FADDE7330D0A0014400020D03F002007
:1008A0000000024080B582B000AF78607B681B68B2
:1008B000044A934201D100F073F900BF0837BD46E6
:1008C00080BD00BF0000014080B400AF00BFBD4646
:1008D0005DF8047B7047000080B582B000AF002354
:1008E0007B60124B5B6C114A43F4804353640F4BA3
:1008F0005B6C03F480437B607B6800233B600B4BA5
:100900001B6C0A4A43F080531364084B1B6C03F0C2
:1009100080533B603B6800220F216FF0010000F024
:1009200017FA00BF0837BD4680BD00BF003802403F
:1009300080B58AB000AF786007F1140300221A6016
:100940005A609A60DA601A617B681B681D4A93429C
:1009500034D100233B611C4B5B6C1B4A43F01003FA
:100960005364194B5B6C03F010033B613B6900233C
:10097000FB60154B1B6B144A43F001031363124BCE
:100980001B6B03F00103FB60FB684FF4C0637B61EA
:100990000223BB610123FB6103233B6207237B62CC
:1009A00007F114031946094800F01EFA0022052138
:1009B000252000F0CDF9252000F0E6F900BF28370A
:1009C000BD4680BD001001400038024000000240DA
:1009D00080B58CB000AF78600023FB620023BB625F
:1009E00000227968192000F0B3F9192000F0CCF941
:1009F0000023FB601E4B5B6C1D4A43F001035364F4
:100A00001B4B5B6C03F00103FB60FB6807F11002FA
:100A100007F114031146184601F008F800F0F2FF40
:100A2000F862FB6A134AA2FB03239B0C013BBB62E7
:100A3000114B124A1A60104B40F2E732DA600E4A4C
:100A4000BB6A53600C4B00221A610B4B00229A6068
:100A5000094801F01DF80346002B04D1064801F0B7
:100A60004CF8034600E0012318463037BD4680BDF0
:100A70000038024083DE1B431C4000200000014080
:100A800080B400AF00BFBD465DF8047B704780B402
:100A900000AFFEE780B400AFFEE780B400AFFEE732
:100AA00080B400AFFEE780B400AF00BFBD465DF884
:100AB000047B704780B500AF024801F042F800BFE8
:100AC00080BD00BF1C40002080B500AF024801F08F
:100AD00003FB00BF80BD00BFD03F002080B400AF4B
:100AE000084BD3F88830074A43F47003C2F88830C3
:100AF000044B4FF000629A6000BFBD465DF8047B76
:100B0000704700BF00ED00E0DFF834D0002103E0C3
:100B10000C4B5B58435004310B480C4B42189A4223
:100B2000F6D30B4A02E0002342F8043B094B9A42F9
:100B3000F9D3FFF7D3FF04F049FCFFF7E3FC70475C
:100B400000000220285500080000002010000020AE
:100B50001000002060400020FEE7000080B500AFDC
:100B60000E4B1B680D4A43F4007313600B4B1B685C
:100B70000A4A43F480631360084B1B68074A43F436
:100B800080731360032000F0D8F80020FFF720FFE7
:100B9000FFF7A2FE0023184680BD00BF003C0240C4
:100BA00080B400AF064B1B781A46064B1B681344F3
:100BB000044A136000BFBD465DF8047B704700BF68
:100BC000080000205C40002080B400AF034B1B688D
:100BD0001846BD465DF8047B704700BF5C400020AE
:100BE00080B485B000AF78607B6803F00703FB60DA
:100BF0000C4BDB68BB60BA684FF6FF031340BB6069
:100C0000FB681A02BB68134343F0BF6343F400332D
:100C1000BB60044ABB68D36000BF1437BD465DF8B3
:100C2000047B704700ED00E080B400AF044BDB684C
:100C30001B0A03F007031846BD465DF8047B7047A6
:100C400000ED00E080B483B000AF0346FB7197F97C
:100C50000730002B0BDBFB7903F01F02074997F9E4
:100C600007305B09012000FA02F241F8232000BF9F
:100C70000C37BD465DF8047B704700BF00E100E023
:100C800080B483B000AF03463960FB7197F9073039
:100C9000002B0ADB3B68DAB20C4997F907301201E6
:100CA000D2B20B4483F800230AE03B68DAB2084969
:100CB000FB7903F00F03043B1201D2B20B441A7606
:100CC00000BF0C37BD465DF8047B704700E100E0D3
:100CD00000ED00E080B489B000AFF860B9607A60E0
:100CE000FB6803F00703FB61FB69C3F10703042BF7
:100CF00028BF0423BB61FB690433062B02D9FB69BF
:100D0000033B00E000237B614FF0FF32BB6902FA36
:100D100003F3DA43BB681A407B699A404FF0FF3116
:100D20007B6901FA03F3D9437B680B4013431846F0
:100D30002437BD465DF8047B704780B582B000AFB4
:100D400078607868FFF74CFF00BF0837BD4680BD6C
:100D500080B586B000AF0346B9607A60FB730023AC
:100D60007B61FFF761FF78617A68B9687869FFF79E
:100D7000B1FF024697F90F3011461846FFF780FF82
:100D800000BF1837BD4680BD80B582B000AF0346B6
:100D9000FB7197F907301846FFF754FF00BF08377B
:100DA000BD4680BD80B483B000AF78607B6893F8A7
:100DB0003530DBB2022B04D07B6880225A650123D8
:100DC0000CE07B68052283F835207B681B681A6875
:100DD0007B681B6822F001021A60002318460C375A
:100DE000BD465DF8047B704780B489B000AF786081
:100DF000396000237B6100233B610023BB6100233A
:100E0000FB616BE10122FB6902FA03F37B613B6842
:100E10001B687A6913403B613A697B699A4240F0EA
:100E20005A813B685B68012B0BD03B685B68022BE7
:100E300007D03B685B68112B03D03B685B68122BC3
:100E400030D17B689B68BB61FB695B00032202FABF
:100E500003F3DB43BA691340BB613B68DA68FB69A3
:100E60005B0002FA03F3BA691343BB617B68BA699A
:100E70009A607B685B68BB610122FB6902FA03F33D
:100E8000DB43BA691340BB613B685B681B0903F035
:100E90000102FB6902FA03F3BA691343BB617B6881
:100EA000BA695A607B68DB68BB61FB695B0003223F
:100EB00002FA03F3DB43BA691340BB613B689A68EB
:100EC000FB695B0002FA03F3BA691343BB617B68F9
:100ED000BA69DA603B685B68022B03D03B685B68E9
:100EE000122B23D1FB69DA087B68083253F82230D1
:100EF000BB61FB6903F007039B000F2202FA03F3B7
:100F0000DB43BA691340BB613B681A69FB6903F0B4
:100F100007039B0002FA03F3BA691343BB61FB6941
:100F2000DA087B680832B96943F822107B681B68CD
:100F3000BB61FB695B00032202FA03F3DB43BA697E
:100F40001340BB613B685B6803F00302FB695B0015
:100F500002FA03F3BA691343BB617B68BA691A608A
:100F60003B685B6803F08053002B00F0B4800023E3
:100F7000FB605F4B5B6C5E4A43F4804353645C4BA5
:100F80005B6C03F48043FB60FB685A4AFB699B0877
:100F9000023352F82330BB61FB6903F003039B006B
:100FA0000F2202FA03F3DB43BA691340BB617B688B
:100FB000514A93422BD07B68504A934225D07B689C
:100FC0004F4A93421FD07B684E4A934219D07B68A8
:100FD0004D4A934213D07B684C4A93420DD07B68B4
:100FE0004B4A934207D07B684A4A934201D1072378
:100FF0000EE008230CE006230AE0052308E00423A2
:1010000006E0032304E0022302E0012300E00023C2
:10101000FA6902F0030292009340BA691343BB617C
:101020003449FB699B080233BA6941F823203A4BE3
:101030001B68BB613B69DB43BA691340BB613B681A
:101040005B6803F48033002B03D0BA693B69134318
:10105000BB61314ABB6913602F4B5B68BB613B6965
:10106000DB43BA691340BB613B685B6803F4003340
:10107000002B03D0BA693B691343BB61264ABB69A5
:101080005360254B9B68BB613B69DB43BA691340E6
:10109000BB613B685B6803F48013002B03D0BA6923
:1010A0003B691343BB611C4ABB6993601A4BDB6805
:1010B000BB613B69DB43BA691340BB613B685B685A
:1010C00003F40013002B03D0BA693B691343BB61DF
:1010D000114ABB69D360FB690133FB61FB690F2BCC
:1010E0007FF690AE00BF2437BD465DF8047B7047A5
:1010F0000038024000380140000002400004024075
:1011000000080240000C024000100240001402409F
:1011100000180240001C0240003C014080B485B031
:1011200000AF78600B467B807B681A697B88134030
:10113000002B02D00123FB7301E00023FB73FB7B38
:1011400018461437BD465DF8047B704780B483B001
:1011500000AF78600B467B8013467B707B78002B5A
:1011600003D07A887B689A6103E07B881A047B68E5
:101170009A6100BF0C37BD465DF8047B704780B4B0
:1011800083B000AF78600B467B807B685A697B88B0
:101190001A407B889A4204D17B881A047B689A6142
:1011A00002E07A887B689A6100BF0C37BD465DF823
:1011B000047B704780B586B000AF78607B68002BF9
:1011C00001D101235BE27B681B6803F00103002B64
:1011D00075D0A34B9B6803F00C03042B0CD0A04BE1
:1011E0009B6803F00C03082B12D19D4B5B6803F442
:1011F0008003B3F5800F0BD1994B1B6803F40033C8
:10120000002B5BD07B685B68002B57D1012336E253
:101210007B685B68B3F5803F06D1914B1B68904AB1
:1012200043F4803313601DE07B685B68B3F5A02F47
:101230000CD18B4B1B688A4A43F480231360884B84
:101240001B68874A43F4803313600BE0844B1B68B0
:10125000834A23F480331360814B1B68804A23F454
:10126000802313607B685B68002B13D0FFF7ACFC16
:10127000386108E0FFF7A8FC02463B69D31A642BEB
:1012800001D90323FBE1764B1B6803F40033002BE9
:10129000F0D014E0FFF798FC386108E0FFF794FC09
:1012A00002463B69D31A642B01D90323E7E16C4B57
:1012B0001B6803F40033002BF0D100E000BF7B6813
:1012C0001B6803F00203002B63D0654B9B6803F09F
:1012D0000C03002B0BD0624B9B6803F00C03082B14
:1012E0001CD15F4B5B6803F48003002B16D15C4B71
:1012F0001B6803F00203002B05D07B68DB68012B21
:1013000001D00123BBE1564B1B6823F0F8027B6838
:101310001B69DB00524913430B603AE07B68DB68D2
:10132000002B20D04F4B01221A60FFF74DFC386193
:1013300008E0FFF749FC02463B69D31A022B01D9AA
:1013400003239CE1464B1B6803F00203002BF0D003
:10135000434B1B6823F0F8027B681B69DB004049A4
:1013600013430B6015E03F4B00221A60FFF72CFC83
:10137000386108E0FFF728FC02463B69D31A022BCC
:1013800001D903237BE1364B1B6803F00203002BDA
:10139000F0D17B681B6803F00803002B30D07B681A
:1013A0005B69002B16D0304B01221A60FFF70CFC52
:1013B000386108E0FFF708FC02463B69D31A022BAC
:1013C00001D903235BE1264B5B6F03F00203002B83
:1013D000F0D015E0244B00221A60FFF7F5FB3861CE
:1013E00008E0FFF7F1FB02463B69D31A022B01D953
:1013F000032344E11A4B5B6F03F00203002BF0D18F
:101400007B681B6803F00403002B00F0A08000231E
:10141000FB75134B1B6C03F08053002B0FD1002383
:10142000BB600F4B1B6C0E4A43F0805313640C4B94
:101430001B6C03F08053BB60BB680123FB750B4B37
:101440001B6803F48073002B21D1084B1B68074AEB
:1014500043F480731360FFF7B7FB386111E000BFFE
:101460000038024000004742800E474200700040B2
:10147000FFF7AAFB02463B69D31A022B01D90323CB
:10148000FDE0814B1B6803F48073002BF0D07B6878
:101490009B68012B06D17D4B1B6F7C4A43F00103F7
:1014A00013671CE07B689B68052B0CD1774B1B6F87
:1014B000764A43F004031367744B1B6F734A43F07F
:1014C000010313670BE0714B1B6F704A23F001039C
:1014D00013676E4B1B6F6D4A23F0040313677B6821
:1014E0009B68002B15D0FFF76FFB38610AE0FFF710
:1014F0006BFB02463B69D31A41F28832934201D911
:101500000323BCE0614B1B6F03F00203002BEED002
:1015100014E0FFF759FB38610AE0FFF755FB02467C
:101520003B69D31A41F28832934201D90323A6E0E2
:10153000564B1B6F03F00203002BEED1FB7D012BFA
:1015400005D1524B1B6C514A23F0805313647B68C6
:101550009B69002B00F092804C4B9B6803F00C03BE
:10156000082B5CD07B689B69022B41D1484B002241
:101570001A60FFF729FB386108E0FFF725FB0246F8
:101580003B69D31A022B01D9032378E03F4B1B6838
:1015900003F00073002BF0D17B68DA697B681B6A6B
:1015A0001A437B685B6A9B011A437B689B6A5B08F2
:1015B000013B1B041A437B68DB6A1B063349134358
:1015C0004B60334B01221A60FFF7FEFA386108E0E6
:1015D000FFF7FAFA02463B69D31A022B01D903231B
:1015E0004DE02A4B1B6803F00073002BF0D045E060
:1015F000274B00221A60FFF7E7FA386108E0FFF78F
:10160000E3FA02463B69D31A022B01D9032336E0E1
:101610001E4B1B6803F00073002BF0D12EE07B689B
:101620009B69012B01D1012329E0184B9B68FB60CA
:10163000FB6803F480027B68DB699A421CD1FB687B
:1016400003F03F027B681B6A9A4215D1FA6847F69D
:10165000C07313407A68526A93420DD1FB6803F459
:1016600040327B689B6A9A4206D1FB6803F0706245
:101670007B68DB6A9A4201D0012300E00023184610
:101680001837BD4680BD00BF0070004000380240E2
:101690006000474280B584B000AF786039607B68F5
:1016A000002B01D10123CCE0684B1B6803F00F0332
:1016B0003A689A420CD9654B3A68D2B21A70634BB9
:1016C0001B6803F00F033A689A4201D00123B8E087
:1016D0007B681B6803F00203002B20D07B681B682B
:1016E00003F00403002B05D0594B9B68584A43F480
:1016F000E05393607B681B6803F00803002B05D060
:10170000534B9B68524A43F460439360504B9B6831
:1017100023F0F0027B689B684D4913438B607B6824
:101720001B6803F00103002B44D07B685B68012B2E
:1017300007D1474B1B6803F40033002B19D1012359
:101740007FE07B685B68022B03D07B685B68032BC0
:1017500007D13F4B1B6803F00073002B09D1012315
:101760006FE03B4B1B6803F00203002B01D1012308
:1017700067E0374B9B6823F003027B685B68344962
:1017800013438B60FFF720FAF8600AE0FFF71CFABA
:101790000246FB68D31A41F28832934201D90323EF
:1017A0004FE02B4B9B6803F00C027B685B689B004F
:1017B0009A42EBD1254B1B6803F00F033A689A421B
:1017C0000CD2224B3A68D2B21A70204B1B6803F03D
:1017D0000F033A689A4201D0012332E07B681B680C
:1017E00003F00403002B08D0194B9B6823F4E0524C
:1017F0007B68DB68164913438B607B681B6803F0CA
:101800000803002B09D0124B9B6823F460427B68CD
:101810001B69DB000E4913438B6000F021F8014681
:101820000B4B9B681B0903F00F030A4AD35C21FA98
:1018300003F3094A1360094B1B681846FFF7C8F801
:10184000002318461037BD4680BD00BF003C024053
:10185000003802400055000800000020040000206D
:10186000F0B585B000AF00237B600023FB60002350
:101870003B600023BB60504B9B6803F00C03042BC0
:1018800007D0082B08D0002B40F08D804B4BBB605D
:101890008CE04B4BBB6089E0474B5B6803F03F0338
:1018A0007B60454B5B6803F48003002B23D0424BE5
:1018B0005B689B094FF0000440F2FF114FF00002FB
:1018C00003EA010504EA02063D4A02FB06F1002292
:1018D00002FB05F20A443A49A5FB010153181946D7
:1018E0007B684FF000041A462346FEF771FC03465E
:1018F0000C46FB6049E0304B5B689B094FF00004ED
:1019000040F2FF114FF0000203EA010504EA02066B
:10191000294632464FF000034FF00004540144EAD8
:10192000D1644B0119462246491B62EB06024FF077
:1019300000034FF00004940144EA91648B015B1AA8
:1019400064EB02044FF000014FF00002E20042EAB3
:101950005372D9000B4614465B1944EB06044FF052
:1019600000014FF00002A20242EA935299020B4694
:101970001446184621467B684FF000041A46234659
:10198000FEF726FC03460C46FB600B4B5B681B0C0A
:1019900003F0030301335B003B60FA683B68B2FB72
:1019A000F3F3BB6002E0054BBB6000BFBB681846A9
:1019B0001437BD46F0BD00BF003802400024F400DB
:1019C00040787D0180B400AF034B1B681846BD46CC
:1019D0005DF8047B704700BF0000002080B500AFB9
:1019E000FFF7F0FF0146054B9B689B0A03F00703D6
:1019F000034AD35C21FA03F3184680BD0038024045
:101A00001055000880B500AFFFF7DCFF0146054B1D
:101A10009B685B0B03F00703034AD35C21FA03F3D3
:101A2000184680BD003802401055000880B483B0CD
:101A300000AF786039607B680F221A60124B9B6898
:101A400003F003027B685A600F4B9B6803F0F002BF
:101A50007B689A600C4B9B6803F4E0527B68DA6009
:101A6000094B9B68DB0803F4E0527B681A61074B63
:101A70001B6803F00F023B681A6000BF0C37BD46BD
:101A80005DF8047B704700BF00380240003C024014
:101A900080B582B000AF78607B68002B01D1012354
:101AA0001DE07B6893F83D30DBB2002B06D17B68EC
:101AB000002283F83C20786800F015F87B68022249
:101AC00083F83D207B681A687B680433194610460A
:101AD00000F068F97B68012283F83D200023184656
:101AE0000837BD4680BD80B483B000AF786000BFCA
:101AF0000C37BD465DF8047B704780B485B000AFFD
:101B000078607B681B68DA687B681B6842F00102BA
:101B1000DA607B681B689B6803F00703FB60FB6867
:101B2000062B07D07B681B681A687B681B6842F02D
:101B300001021A60002318461437BD465DF8047B85
:101B4000704780B582B000AF78607B681B681B6906
:101B500003F00203022B22D17B681B68DB6803F0D1
:101B60000203022B1BD17B681B686FF002021A6113
:101B70007B6801221A777B681B689B6903F003036B
:101B8000002B03D0786800F0EEF805E0786800F0EC
:101B9000E0F8786800F0F1F87B6800221A777B683B
:101BA0001B681B6903F00403042B22D17B681B68AC
:101BB000DB6803F00403042B1BD17B681B686FF008
:101BC00004021A617B6802221A777B681B689B6992
:101BD00003F44073002B03D0786800F0C4F805E0EC
:101BE000786800F0B6F8786800F0C7F87B680022E3
:101BF0001A777B681B681B6903F00803082B22D146
:101C00007B681B68DB6803F00803082B1BD17B682B
:101C10001B686FF008021A617B6804221A777B68E0
:101C20001B68DB6903F00303002B03D0786800F026
:101C30009AF805E0786800F08CF8786800F09DF874
:101C40007B6800221A777B681B681B6903F010030E
:101C5000102B22D17B681B68DB6803F01003102B6C
:101C60001BD17B681B686FF010021A617B68082229
:101C70001A777B681B68DB6903F44073002B03D081
:101C8000786800F070F805E0786800F062F878682D
:101C900000F073F87B6800221A777B681B681B6969
:101CA00003F00103012B0ED17B681B68DB6803F096
:101CB0000103012B07D17B681B686FF001021A61D9
:101CC0007868FEF7EFFD7B681B681B6903F08003F3
:101CD000802B0ED17B681B68DB6803F08003802BB0
:101CE00007D17B681B686FF080021A61786800F08A
:101CF00003F97B681B681B6903F04003402B0ED17E
:101D00007B681B68DB6803F04003402B07D17B68CE
:101D10001B686FF040021A61786800F038F87B6841
:101D20001B681B6903F02003202B0ED17B681B6806
:101D3000DB6803F02003202B07D17B681B686FF062
:101D400020021A61786800F0CDF800BF0837BD4660
:101D500080BD80B483B000AF786000BF0C37BD4653
:101D60005DF8047B704780B483B000AF786000BF3B
:101D70000C37BD465DF8047B704780B483B000AF7C
:101D8000786000BF0C37BD465DF8047B704780B4B7
:101D900083B000AF786000BF0C37BD465DF8047BB0
:101DA0007047000080B485B000AF786039607B6810
:101DB0001B68FB607B68404A934213D07B68B3F199
:101DC000804F0FD07B683D4A93420BD07B683C4AE2
:101DD000934207D07B683B4A934203D07B683A4AE0
:101DE000934208D1FB6823F07003FB603B685B689B
:101DF000FA681343FB607B682F4A93422BD07B68C1
:101E0000B3F1804F27D07B682C4A934223D07B6864
:101E10002B4A93421FD07B682A4A93421BD07B688F
:101E2000294A934217D07B68284A934213D07B6893
:101E3000274A93420FD07B68264A93420BD07B6897
:101E4000254A934207D07B68244A934203D07B689B
:101E5000234A934208D1FB6823F44073FB603B683C
:101E6000DB68FA681343FB60FB6823F080023B6881
:101E70005B691343FB607B68FA681A603B689A6889
:101E80007B68DA623B681A687B689A627B680A4AF8
:101E9000934203D07B680C4A934203D13B681A6992
:101EA0007B681A637B6801225A6100BF1437BD4604
:101EB0005DF8047B704700BF000001400004004053
:101EC00000080040000C00400004014000400140B8
:101ED000004401400048014000180040001C004040
:101EE0000020004080B483B000AF786000BF0C37A2
:101EF000BD465DF8047B704780B483B000AF786066
:101F000000BF0C37BD465DF8047B704780B582B0DA
:101F100000AF78607B68002B01D101233FE07B6834
:101F200093F83930DBB2002B06D17B68002283F8AE
:101F300038207868FEF7FCFC7B68242283F839207F
:101F40007B681B68DA687B681B6822F40052DA60E1
:101F5000786800F04BFB7B681B681A697B681B681C
:101F600022F490421A617B681B685A697B681B687F
:101F700022F02A025A617B681B68DA687B681B685A
:101F800042F40052DA607B680022DA637B68202228
:101F900083F839207B68202283F83A2000231846F2
:101FA0000837BD4680BD80B588B002AFF860B96023
:101FB0003B601346FB8000237B61FB6893F839305C
:101FC000DBB2202B40F08380BB68002B02D0FB8863
:101FD000002B01D101237BE0FB6893F83830012B03
:101FE00001D1022374E0FB68012283F83820FB68EA
:101FF0000022DA63FB68212283F83920FEF7E4FD32
:102000007861FB68FA889A84FB68FA88DA84FB684E
:10201000002283F8382042E0FB68DB8C9BB2013B56
:102020009AB2FB68DA84FB689B68B3F5805F22D1C3
:102030003B6800937B6900228021F86800F06AF910
:102040000346002B01D0032342E0BB683B613B69A0
:102050001B881A46FB681B68C2F308025A60FB68BB
:102060001B69002B03D1BB680233BB6017E0BB6860
:102070000133BB6013E03B6800937B690022802141
:10208000F86800F047F90346002B01D003231FE056
:10209000BB685A1CBA601A78FB681B685A60FB68F8
:1020A000DB8C9BB2002BB7D13B6800937B6900228D
:1020B0004021F86800F02EF90346002B01D00323DD
:1020C00006E0FB68202283F83920002300E0022389
:1020D00018461837BD4680BD80B588B000AF78601F
:1020E0007B681B681B68FB617B681B68DB68BB61E6
:1020F0007B681B685B697B6100233B610023FB609D
:10210000FB6903F00F033B613B69002B0DD1FB69B9
:1021100003F02003002B08D0BB6903F02003002B41
:1021200003D0786800F0E0F9D1E03B69002B00F0C3
:10213000B0807B6903F00103002B05D1BB6903F478
:102140009073002B00F0A580FB6903F00103002BC6
:102150000AD0BB6903F48073002B05D07B68DB6B6E
:1021600043F001027B68DA63FB6903F00403002B90
:102170000AD07B6903F00103002B05D07B68DB6B81
:1021800043F002027B68DA63FB6903F00203002B71
:102190000AD07B6903F00103002B05D07B68DB6B61
:1021A00043F004027B68DA63FB6903F00803002B49
:1021B0000FD0BB6903F02003002B04D17B6903F02F
:1021C0000103002B05D07B68DB6B43F008027B68C2
:1021D000DA637B68DB6B002B78D0FB6903F02003AC
:1021E000002B07D0BB6903F02003002B02D07868D6
:1021F00000F07AF97B681B685B6903F04003402BB1
:102200000CBF01230023DBB2FB607B68DB6B03F0B8
:102210000803002B02D1FB68002B31D0786800F056
:10222000C3F87B681B685B6903F04003402B23D134
:102230007B681B685A697B681B6822F040025A6100
:102240007B685B6B002B13D07B685B6B214A1A6544
:102250007B685B6B1846FEF7A5FD0346002B16D086
:102260007B685B6B1B6D7A68526B104698470EE07B
:10227000786800F045F80AE0786800F041F806E078
:10228000786800F03DF87B680022DA631EE000BF4A
:102290001CE0FB6903F08003002B08D0BB6903F04E
:1022A0008003002B03D0786800F0B0F80FE0FB69E2
:1022B00003F04003002B0AD0BB6903F04003002B5E
:1022C00005D0786800F0F8F800BF00E000BF2037C4
:1022D000BD4680BDE523000880B483B000AF7860C0
:1022E00000BF0C37BD465DF8047B704780B483B0F7
:1022F00000AF786000BF0C37BD465DF8047B7047C7
:1023000080B483B000AF786000BF0C37BD465DF885
:10231000047B704780B584B000AFF860B9603B6063
:102320001346FB712CE0BB69B3F1FF3F28D0BB69BA
:10233000002B07D0FEF748FC02463B68D31ABA6967
:102340009A421DD2FB681B68DA68FB681B6822F49E
:10235000D072DA60FB681B685A69FB681B6822F060
:1023600001025A61FB68202283F83920FB68202291
:1023700083F83A20FB68002283F8382003230FE01B
:10238000FB681B681A68BB681340BA689A420CBFA6
:1023900001230023DBB21A46FB799A42C3D0002303
:1023A00018461037BD4680BD80B483B000AF78605A
:1023B0007B681B68DA687B681B6822F49072DA60BD
:1023C0007B681B685A697B681B6822F001025A61AE
:1023D0007B68202283F83A2000BF0C37BD465DF8A9
:1023E000047B704780B584B000AF78607B689B6BDE
:1023F000FB60FB680022DA85FB680022DA84F8685B
:10240000FFF77EFF00BF1037BD4680BD80B485B0AA
:1024100000AF78607B6893F83930DBB2212B44D170
:102420007B689B68B3F5805F1AD17B681B6AFB6091
:10243000FB681B881A467B681B68C2F308025A6057
:102440007B681B69002B05D17B681B6A9A1C7B6823
:102450001A620EE07B681B6A5A1C7B681A6208E0ED
:102460007B681B6A591C7A6811621A787B681B6842
:102470005A607B68DB8C9BB2013B9BB27A68194641
:10248000D184002B0FD17B681B68DA687B681B68DE
:1024900022F08002DA607B681B68DA687B681B6860
:1024A00042F04002DA60002300E0022318461437AD
:1024B000BD465DF8047B704780B582B000AF7860A0
:1024C0007B681B68DA687B681B6822F04002DA6070
:1024D0007B68202283F839207868FFF7FDFE00230F
:1024E00018460837BD4680BD80B584B000AF78601F
:1024F0007B6893F83A30DBB2222B71D17B689B6802
:10250000B3F5805F23D17B689B6AFB607B681B69A6
:10251000002B0ED17B681B685B689BB2C3F308037A
:102520009AB2FB681A807B689B6A9A1C7B689A62E5
:1025300029E07B681B685B689BB2DBB29AB2FB68E0
:102540001A807B689B6A5A1C7B689A621BE07B68D6
:102550001B69002B0AD17B681B6858687B689B6AE3
:10256000591C7A689162C2B21A700CE07B681B68D1
:102570005B68DAB27B689B6A581C7968886202F0F3
:102580007F02D2B21A707B68DB8D9BB2013B9BB29B
:102590007A681946D185002B20D17B681B68DA68E0
:1025A0007B681B6822F02002DA607B681B68DA68AF
:1025B0007B681B6822F48072DA607B681B685A694A
:1025C0007B681B6822F001025A617B68202283F835
:1025D0003A207868FFF78AFE002302E0002300E03B
:1025E000022318461037BD4680BD00002DE9F04F8C
:1025F00085B000AF78607B681B681B6923F440518D
:102600007B68DA687B681B680A431A617B689A6892
:102610007B681B691A437B685B691A437B68DB69CB
:102620001343FB607B681B68DB6823F4164323F0CD
:102630000C037A681268F9680B43D3607B681B68E7
:102640005B6923F440717B689A697B681B680A4365
:102650005A617B68DB69B3F5004F40F08B817B6882
:102660001B68C14A934205D07B681B68BF4A9342EE
:1026700040F0BD80FFF7C6F9B860BB681D464FF05B
:102680000006A846B14618EB080349EB0904984632
:10269000A14618EB050849EB06094FF000014FF081
:1026A00000024FEAC90242EA58724FEAC80188465E
:1026B000914618EB050049EB06017B685B681D46F7
:1026C0004FF000066B1946EB06041A462346FDF749
:1026D0007FFD03460C461A46A54BA3FB02235B096C
:1026E0004FEA0318BB681D464FF00006A946B246E4
:1026F00019EB09034AEB0A049946A24619EB0509AE
:102700004AEB060A4FF000014FF000024FEACA02FE
:1027100042EA59724FEAC9018946924619EB05000F
:102720004AEB06017B685B681D464FF000066B199B
:1027300046EB06041A462346FDF74AFD03460C46BF
:102740001A468B4BA3FB02135B09642101FB03F3C5
:10275000D31ADB003233864AA2FB03235B095B00FA
:1027600003F4F8739844BB681D464FF00006A94671
:10277000B24619EB09034AEB0A049946A24619EB43
:1027800005094AEB060A4FF000014FF000024FEA3C
:10279000CA0242EA59724FEAC9018946924619EBC8
:1027A00005004AEB06017B685B681D464FF000069A
:1027B0006B1946EB06041A462346FDF709FD03464E
:1027C0000C461A466A4BA3FB02135B09642101FB0A
:1027D00003F3D31ADB003233654AA2FB03235B0900
:1027E00003F007027B681B6842449A606FE2FFF7C0
:1027F000F5F8B860BB681D464FF00006A846B14624
:1028000018EB080349EB09049846A14618EB0508A4
:1028100049EB06094FF000014FF000024FEAC902F0
:1028200042EA58724FEAC8018846914618EB050003
:1028300049EB06017B685B681D464FF000066B198B
:1028400046EB06041A462346FDF7C2FC03460C4637
:102850001A46474BA3FB02235B094FEA0318BB68E8
:102860001D464FF00006A946B24619EB09034AEB94
:102870000A049946A24619EB05094AEB060A4FF0ED
:1028800000014FF000024FEACA0242EA59724FEAD1
:10289000C9018946924619EB05004AEB06017B689F
:1028A0005B681D464FF000066B1946EB06041A469E
:1028B0002346FDF78DFC03460C461A462C4BA3FB22
:1028C00002135B09642101FB03F3D31ADB003233EB
:1028D000274AA2FB03235B095B0003F4F8739844C7
:1028E000BB681D464FF00006A946B24619EB090326
:1028F0004AEB0A049946A24619EB05094AEB060A77
:102900004FF000014FF000024FEACA0242EA59724A
:102910004FEAC9018946924619EB05004AEB0601C8
:102920007B685B681D464FF000066B1946EB06049A
:102930001A462346FDF74CFC03460C461A460C4B40
:10294000A3FB02135B09642101FB03F3D31ADB0031
:102950003233074AA2FB03235B0903F007027B68BB
:102960001B6842449A60B2E100100140001401402B
:102970001F85EB517B681B68D74A934205D07B6863
:102980001B68D64A934240F0D180FFF73BF8B8600D
:10299000BB689A464FF0000BD046D94618EB0803A7
:1029A00049EB09049846A14618EB0A0849EB0B09C4
:1029B0004FF000014FF000024FEAC90242EA58729C
:1029C0004FEAC801884691461AEB08054BEB090609
:1029D0007B685B6819464FF000024FF000034FF030
:1029E0000004940044EA91748B001A46234628465A
:1029F0003146FDF7EDFB03460C461A46B84BA3FBE8
:102A000002235B094FEA0318BB689B464FF0000C9A
:102A1000D946E24619EB09034AEB0A049946A24655
:102A200019EB0B094AEB0C0A4FF000014FF00002C2
:102A30004FEACA0242EA59724FEAC90189469246F0
:102A40001BEB09054CEB0A067B685B6819464FF0E7
:102A500000024FF000034FF00004940044EA917428
:102A60008B001A46234628463146FDF7B1FB034644
:102A70000C461A469A4BA3FB02135B09642101FB27
:102A800003F3D31A1B013233954AA2FB03235B09DC
:102A900003F0F0039844BB689B464FF0000CD94606
:102AA000E24619EB09034AEB0A049946A24619EBE0
:102AB0000B094AEB0C0A4FF000014FF000024FEAFD
:102AC000CA0242EA59724FEAC901894692461BEB93
:102AD00009054CEB0A067B685B6819464FF000025B
:102AE0004FF000034FF00004940044EA91748B000F
:102AF0001A46234628463146FDF76AFB03460C4634
:102B00001A46774BA3FB02135B09642101FB03F315
:102B1000D31A1B013233724AA2FB03235B0903F071
:102B20000F027B681B6842449A60D0E0FEF756FFB4
:102B3000B860BB689A464FF0000BD046D94618EBF8
:102B4000080349EB09049846A14618EB0A0849EB2B
:102B50000B094FF000014FF000024FEAC90242EAB0
:102B600058724FEAC801884691461AEB08054BEBAC
:102B700009067B685B6819464FF000024FF00003BE
:102B80004FF00004940044EA91748B001A462346E7
:102B900028463146FDF71CFB03460C461A46504BAF
:102BA000A3FB02235B094FEA0318BB689B464FF067
:102BB000000CD946E24619EB09034AEB0A04994690
:102BC000A24619EB0B094AEB0C0A4FF000014FF03B
:102BD00000024FEACA0242EA59724FEAC901894625
:102BE00092461BEB09054CEB0A067B685B681946AD
:102BF0004FF000024FF000034FF00004940044EA4D
:102C000091748B001A46234628463146FDF7E0FAB8
:102C100003460C461A46324BA3FB02135B096421A0
:102C200001FB03F3D31A1B0132332D4AA2FB03230A
:102C30005B0903F0F0039844BB689B464FF0000C1F
:102C4000D946E24619EB09034AEB0A049946A24623
:102C500019EB0B094AEB0C0A4FF000014FF0000290
:102C60004FEACA0242EA59724FEAC90189469246BE
:102C70001BEB09054CEB0A067B685B6819464FF0B5
:102C800000024FF000034FF00004940044EA9174F6
:102C90008B001A46234628463146FDF799FA03462B
:102CA0000C461A460E4BA3FB02135B09642101FB81
:102CB00003F3D31A1B013233094AA2FB03235B0936
:102CC00003F00F027B681B6842449A60FFE700BF75
:102CD0001437BD46BDE8F08F0010014000140140DC
:102CE0001F85EB5180B485B000AF0346FB80002305
:102CF000FB60B7F90630842B05D0B7F90620FB68D6
:102D000013440333FB60FB6818461437BD465DF877
:102D1000047B704780B483B000AFEFF305837B6022
:102D20007B68002B14BF01230023DBB218460C374D
:102D3000BD465DF8047B704780B500AF01F0F0F848
:102D40000023184680BDF0B589B004AF78603960C3
:102D50007B685B69002B20D07B689B69002B1CD0B3
:102D60007B685C687B681D687B681E697B68B3F95B
:102D700008301846FFF7B6FF01467B685B697A6842
:102D800092690292019300913B683246294620469F
:102D900000F00BFF0346FB601CE07B685C687B680F
:102DA0001D687B681B699EB27B68B3F908301846C2
:102DB000FFF798FF024607F10C03019300923B686E
:102DC00032462946204600F049FF0346012B01D038
:102DD000002300E0FB6818461437BD46F0BD80B5FF
:102DE00084B000AF78607B68FB60FB68002B01D08B
:102DF000FB6800E00123184601F05EF80023184646
:102E00001037BD4680BD80B586B002AF78603960AE
:102E10007B685B68002B10D03B68012B0BD17B6873
:102E20005A6803230093134600220021012000F07A
:102E3000BDF9034616E0002314E03B68012B10D1D6
:102E400003220021012000F023FAF860FB68002B28
:102E500005D0002300220021F86800F075FAFB6815
:102E600000E0002318461037BD4680BD80B584B011
:102E700000AF786039600023BB607B68002B01D114
:102E800080233AE00023FB603B68B3F1FF3F03D1AE
:102E90004FF0FF33FB6009E03B68002B06D03B6836
:102EA000FB60FB68002B01D10123FB60FFF732FFC1
:102EB0000346002B17D007F108031A460021786853
:102EC00000F0CEFC0346012B01D0FF2315E0BB68C8
:102ED000002B11D00B4B4FF080521A60BFF34F8F75
:102EE000BFF36F8F08E0F968786800F0B1FB034624
:102EF000012B01D0FF2300E0002318461037BD4608
:102F000080BD00BF04ED00E080B584B000AF786004
:102F10000023FB600023BB60FFF7FCFE0346002B91
:102F200016D007F108031946786800F007FB03463E
:102F3000012B01D0FF2317E0BB68002B13D00C4BF3
:102F40004FF080521A60BFF34F8FBFF36F8F0AE0CC
:102F5000002300220021786800F0F6F90346012BD7
:102F600001D0FF23FB60FB6818461037BD4680BDCB
:102F700004ED00E080B483B000AF78607B6803F1BB
:102F800008027B685A607B684FF0FF329A607B686A
:102F900003F108027B68DA607B6803F108027B6852
:102FA0001A617B6800221A6000BF0C37BD465DF8CD
:102FB000047B704780B483B000AF78607B680022E8
:102FC0001A6100BF0C37BD465DF8047B704780B4C2
:102FD00085B000AF786039607B685B68FB603B68F8
:102FE000FA685A60FB689A683B689A60FB689B685D
:102FF0003A685A60FB683A689A603B687A681A6176
:103000007B681B685A1C7B681A6000BF1437BD467A
:103010005DF8047B704780B485B000AF786039609C
:103020003B681B68BB60BB68B3F1FF3F03D17B68A3
:103030001B69FB600CE07B680833FB6002E0FB6807
:103040005B68FB60FB685B681B68BA689A42F6D2F3
:10305000FB685A683B685A603B685B683A689A60EC
:103060003B68FA689A60FB683A685A603B687A681D
:103070001A617B681B685A1C7B681A6000BF143792
:10308000BD465DF8047B704780B485B000AF7860C2
:103090007B681B69FB607B685B687A6892689A60F2
:1030A0007B689B687A6852685A60FB685B687A68DC
:1030B0009A4203D17B689A68FB685A607B68002259
:1030C0001A61FB681B685A1EFB681A60FB681B6864
:1030D00018461437BD465DF8047B704780B584B050
:1030E00000AF786039607B68FB60FB68002B09D11A
:1030F0004FF0500383F31188BFF36F8FBFF34F8FEF
:10310000BB60FEE701F072FEFB681A68FB68DB6BD0
:10311000F968096C01FB03F31A44FB685A60FB6809
:1031200000229A63FB681A68FB689A60FB681A6859
:10313000FB68DB6B013BF968096C01FB03F31A4484
:10314000FB68DA60FB68FF2283F84420FB68FF22FB
:1031500083F845203B68002B14D1FB681B69002BCA
:103160001AD0FB681033184601F01CF90346002BF7
:1031700012D00D4B4FF080521A60BFF34F8FBFF348
:103180006F8F09E0FB6810331846FFF7F3FEFB680A
:1031900024331846FFF7EEFE01F056FE01231846D1
:1031A0001037BD4680BD00BF04ED00E080B58EB095
:1031B00002AFF860B9607A603B60FB68002B09D110
:1031C0004FF0500383F31188BFF36F8FBFF34F8F1E
:1031D000BB62FEE73B68002B09D14FF0500383F33D
:1031E0001188BFF36F8FBFF34F8F7B62FEE77B6861
:1031F000002B02D0BB68002B01D0012300E000238C
:10320000002B09D14FF0500383F31188BFF36F8F68
:10321000BFF34F8F3B62FEE77B68002B02D1BB6898
:10322000002B01D1012300E00023002B09D14FF036
:10323000500383F31188BFF36F8FBFF34F8FFB6190
:10324000FEE748237B617B69482B09D04FF0500390
:1032500083F31188BFF36F8FBFF34F8FBB61FEE71E
:103260003B68FB62FB6A002B0DD0FB6A012283F8EE
:10327000462097F83820FB6A009313467A68B968AD
:10328000F86800F042F8FB6A18463037BD4680BD4A
:1032900080B58AB002AFF860B9601346FB71FB6875
:1032A000002B09D14FF0500383F31188BFF36F8FC8
:1032B000BFF34F8F3B61FEE7BB68002B02D10023B9
:1032C000FB6104E0FB68BA6802FB03F3FB61FB6986
:1032D0004833184601F0A4FEB861BB69002B0FD03B
:1032E000BB6948337B61BB69002283F84620FA79C9
:1032F000BB69009313467A69B968F86800F005F86D
:10330000BB6918462037BD4680BD80B584B000AF8C
:10331000F860B9607A60FB70BB68002B03D1BB69B1
:10332000BA691A6002E0BB697A681A60BB69FA6818
:10333000DA63BB69BA681A640121B869FFF7CEFE87
:1033400000BF1037BD4680BD80B58EB000AFF860BD
:10335000B9607A603B6000237B63FB683B633B6B37
:10336000002B09D14FF0500383F31188BFF36F8F07
:10337000BFF34F8FBB62FEE7BB68002B03D13B6BF3
:103380001B6C002B01D1012300E00023002B09D18D
:103390004FF0500383F31188BFF36F8FBFF34F8F4C
:1033A0007B62FEE73B68022B03D13B6BDB6B012B9F
:1033B00001D1012300E00023002B09D14FF050037D
:1033C00083F31188BFF36F8FBFF34F8F3B62FEE72C
:1033D00001F0A4F90346002B02D17B68002B01D138
:1033E000012300E00023002B09D14FF0500383F3A9
:1033F0001188BFF36F8FBFF34F8FFB61FEE701F0C2
:10340000F5FC3B6B9A6B3B6BDB6B9A4202D33B68E0
:10341000022B29D13A68B968386B00F0B6FAF86225
:103420003B6B5B6A002B10D03B6B2433184600F0DB
:10343000B9FF0346002B13D03F4B4FF080521A6068
:10344000BFF34F8FBFF36F8F0AE0FB6A002B07D0EB
:10345000394B4FF080521A60BFF34F8FBFF36F8F1D
:1034600001F0F2FC012363E07B68002B03D101F043
:10347000EBFC00235CE07B6B002B06D107F114030F
:10348000184600F0F1FF01237B6301F0DDFC00F042
:10349000A5FD01F0ABFC3B6B93F844305BB2B3F19C
:1034A000FF3F03D13B6B002283F844203B6B93F832
:1034B00045305BB2B3F1FF3F03D13B6B002283F891
:1034C000452001F0C1FC3A1D07F1140311461846CE
:1034D00000F0E0FF0346002B24D1386B00F04DFBD9
:1034E0000346002B18D03B6B10337A681146184600
:1034F00000F034FF386B00F0D8FA00F07DFD034691
:10350000002B7FF47CAF0C4B4FF080521A60BFF35E
:103510004F8FBFF36F8F72E7386B00F0C6FA00F081
:103520006BFD6CE7386B00F0C0FA00F065FD00231E
:1035300018463837BD4680BD04ED00E080B58EB03A
:1035400000AF786039607B683B633B6B002B09D12F
:103550004FF0500383F31188BFF36F8FBFF34F8F8A
:103560003B62FEE73B6B1B6C002B09D04FF0500316
:1035700083F31188BFF36F8FBFF34F8FFB61FEE7BB
:103580003B6B1B68002B03D13B6B5B68002B01D1AD
:10359000012300E00023002B09D14FF0500383F3F7
:1035A0001188BFF36F8FBFF34F8FBB61FEE701F050
:1035B000F9FCEFF311824FF0500383F31188BFF34E
:1035C0006F8FBFF34F8F7A613B617B69FB623B6B0F
:1035D0009B6BBB623B6BDB6BBA6A9A422BD23B6B39
:1035E00093F8453087F82730BB6A5A1C3B6B9A63C7
:1035F00097F92730B3F1FF3F12D13B6B5B6A002B89
:1036000016D03B6B2433184600F0CCFE0346002B4B
:103610000ED03B68002B0BD03B6801221A6007E0FC
:1036200097F827300133DBB25AB23B6B83F8452061
:1036300001237B6301E000237B63FB6AFB60FB6883
:1036400083F311887B6B18463837BD4680BD000078
:1036500080B58EB000AF7860396000237B637B68F3
:10366000FB6200233B63FB6A002B09D14FF0500340
:1036700083F31188BFF36F8FBFF34F8F3B62FEE779
:10368000FB6A1B6C002B09D04FF0500383F31188A9
:10369000BFF36F8FBFF34F8FFB61FEE701F03EF882
:1036A0000346002B02D13B68002B01D1012300E02F
:1036B0000023002B09D14FF0500383F31188BFF38F
:1036C0006F8FBFF34F8FBB61FEE701F08FFBFB6A8B
:1036D0009B6BBB62BB6A002B24D0BB6A5A1EFB6A81
:1036E0009A63FB6A1B68002B04D101F0DDF90246E6
:1036F000FB6A5A60FB6A1B69002B0FD0FB6A103310
:10370000184600F04FFE0346002B07D0534B4FF0F6
:1037100080521A60BFF34F8FBFF36F8F01F094FB9D
:10372000012396E03B68002B10D13B6B002B09D0A6
:103730004FF0500383F31188BFF36F8FBFF34F8FA8
:103740007B61FEE701F080FB002382E07B6B002BB6
:1037500006D107F10C03184600F086FE01237B63B7
:1037600001F072FB00F03AFC01F040FBFB6A93F8B9
:1037700044305BB2B3F1FF3F03D1FB6A002283F810
:103780004420FB6A93F845305BB2B3F1FF3F03D1AD
:10379000FB6A002283F8452001F056FB3A4607F108
:1037A0000C031146184600F075FE0346002B32D17B
:1037B000F86A00F0CCF90346002B26D0FB6A1B68A0
:1037C000002B09D101F012FBFB6A5B68184600F080
:1037D000C3FF386301F038FBFB6A24333A681146B3
:1037E000184600F0BBFDF86A00F05FF900F004FC39
:1037F0000346002B7FF469AF184B4FF080521A60DC
:10380000BFF34F8FBFF36F8F5FE7F86A00F04DF99A
:1038100000F0F2FB59E7F86A00F047F900F0ECFB22
:10382000F86A00F094F90346002B3FF44EAF3B6B6F
:10383000002B0DD001F0DAFAF86A00F08EF8786209
:10384000FB6A5B68796A184601F090F801F0FCFAAF
:10385000002318463837BD4680BD00BF04ED00E0A8
:1038600080B58EB000AFF860B9607A60FB683B63EA
:103870003B6B002B09D14FF0500383F31188BFF34A
:103880006F8FBFF34F8F3B62FEE7BB68002B03D106
:103890003B6B1B6C002B01D1012300E00023002BAC
:1038A00009D14FF0500383F31188BFF36F8FBFF33B
:1038B0004F8FFB61FEE701F075FBEFF311824FF0D4
:1038C000500383F31188BFF36F8FBFF34F8FBA613B
:1038D0007B61BB69FB623B6B9B6BBB62BB6A002B72
:1038E0002FD03B6B93F8443087F82730B968386B9A
:1038F00000F0B5F8BB6A5A1E3B6B9A6397F9273004
:10390000B3F1FF3F12D13B6B1B69002B16D03B6B11
:103910001033184600F046FD0346002B0ED07B689E
:10392000002B0BD07B6801221A6007E097F8273044
:103930000133DBB25AB23B6B83F8442001237B6333
:1039400001E000237B63FB6A3B613B6983F31188E1
:103950007B6B18463837BD4680BD80B485B000AF5C
:1039600078607B685B6A002B06D07B681B6B1B68EA
:10397000C3F10703FB6001E00023FB60FB6818460E
:103980001437BD465DF8047B704780B586B000AF44
:10399000F860B9607A6000237B61FB689B6B3B61D8
:1039A000FB681B6C002B0DD1FB681B68002B4DD1F5
:1039B000FB685B68184600F055FF7861FB680022E1
:1039C0005A6043E07B68002B19D1FB689868FB685C
:1039D0001B6C1A46B96801F01DFDFB689A68FB680C
:1039E0001B6C1A44FB689A60FB689A68FB685B680A
:1039F0009A422BD3FB681A68FB689A6026E0FB6842
:103A0000D868FB681B6C1A46B96801F003FDFB68B7
:103A1000DA68FB681B6C5B421A44FB68DA60FB687F
:103A2000DA68FB681B689A4207D2FB685A68FB6831
:103A30001B6C5B421A44FB68DA607B68022B05D181
:103A40003B69002B02D03B69013B3B613B695A1C3F
:103A5000FB689A637B6918461837BD4680BD80B500
:103A600082B000AF786039607B681B6C002B18D087
:103A70007B68DA687B681B6C1A447B68DA607B6859
:103A8000DA687B685B689A4203D37B681A687B6854
:103A9000DA607B68D9687B681B6C1A46386801F06D
:103AA000B9FC00BF0837BD4680BD80B584B000AF0B
:103AB000786001F09BF97B6893F84530FB7311E067
:103AC0007B685B6A002B12D07B682433184600F0B9
:103AD00069FC0346002B01D000F03CFDFB7B013B61
:103AE000DBB2FB7397F90F30002BE9DC00E000BF7D
:103AF0007B68FF2283F8452001F0A6F901F076F9F2
:103B00007B6893F84430BB7311E07B681B69002B22
:103B100012D07B681033184600F044FC0346002B9B
:103B200001D000F017FDBB7B013BDBB2BB7397F903
:103B30000E30002BE9DC00E000BF7B68FF2283F839
:103B4000442001F081F900BF1037BD4680BD80B52B
:103B500084B000AF786001F049F97B689B6B002B63
:103B600002D10123FB6001E00023FB6001F06CF94E
:103B7000FB6818461037BD4680BD80B584B000AFE5
:103B8000786001F033F97B689A6B7B68DB6B9A4253
:103B900002D10123FB6001E00023FB6001F054F936
:103BA000FB6818461037BD4680BD80B58EB004AFA7
:103BB000F860B9607A603B607B6B002B09D14FF0F5
:103BC000500383F31188BFF36F8FBFF34F8F3B62B6
:103BD000FEE7BB6B002B09D14FF0500383F3118834
:103BE000BFF36F8FBFF34F8FFB61FEE754233B6141
:103BF0003B69542B09D04FF0500383F31188BFF376
:103C00006F8FBFF34F8FBB61FEE7BB6B002B1ED0E6
:103C10007B6B002B1BD0BB6B7B627B6A7A6B1A635E
:103C20007B6A022283F85120002303937B6A02936C
:103C300007F1140301933B6B00933B687A68B96802
:103C4000F86800F050F8786A00F0CCF801E0002342
:103C50007B617B6918462837BD4680BD80B58CB036
:103C600004AFF860B9603B601346FB80FB889B00A3
:103C7000184601F0D5F978617B69002B0ED05420ED
:103C800001F0CEF9F861FB69002B03D0FB697A697A
:103C90001A6305E0786901F085FA01E00023FB6111
:103CA000FB69002B17D0FB69002283F85120FA88AA
:103CB00000230393FB690293FB6A0193BB6A0093A1
:103CC0003B68B968F86800F00EF8F86900F08AF807
:103CD0000123BB6102E04FF0FF33BB61BB691846B3
:103CE0002037BD4680BD80B588B000AFF860B960B0
:103CF0007A603B603B6B1A6B7B6803F18043013B4E
:103D00009B001344BB61BB6923F00703BB61BB6924
:103D100003F00703002B09D04FF0500383F3118801
:103D2000BFF36F8FBFF34F8F7B61FEE70023FB6113
:103D300012E0BA68FB69134419783A6BFB691344C3
:103D400034330A461A70BA68FB6913441B78002B97
:103D500006D0FB690133FB61FB690F2BE9D900E059
:103D600000BF3B6B002283F84320BB6A062B01D9BE
:103D70000623BB623B6BBA6ADA623B6BBA6A5A646F
:103D80003B6B00229A643B6B04331846FFF712F931
:103D90003B6B18331846FFF70DF93B6B3A6B1A6112
:103DA000BB6AC3F107023B6B9A613B6B3A6B5A6289
:103DB0003B6B0022DA643B6B002283F850203A68A8
:103DC000F968B86900F0EAFE02463B6B1A60FB6ACC
:103DD000002B02D0FB6A3A6B1A6000BF2037BD4649
:103DE00080BD000080B582B000AF786000F0FEFFBB
:103DF0002A4B1B680133294A1360294B1B68002B8F
:103E000009D1274A7B681360244B1B68012B10D112
:103E100000F0C4FB0DE0234B1B68002B09D1204BA5
:103E20001B68DA6A7B68DB6A9A4202D81C4A7B68A4
:103E300013601D4B1B6801331B4A13607B68DB6AF0
:103E400001229A40194B1B681343184A13607B6880
:103E5000DA6A13469B0013449B00154A1A447B6898
:103E6000043319461046FFF7B2F800F0EDFF0D4B92
:103E70001B68002B0ED00A4B1B68DA6A7B68DB6A72
:103E80009A4207D20B4B4FF080521A60BFF34F8F0C
:103E9000BFF36F8F00BF0837BD4680BD8003002091
:103EA000800200208C0300209C0300208803002057
:103EB0008402002004ED00E080B584B000AF78609B
:103EC0000023FB607B68002B16D0134B1B68002B74
:103ED00009D04FF0500383F31188BFF36F8FBFF306
:103EE0004F8FBB60FEE700F079F80021786800F0A2
:103EF000EFFD00F081F8F860FB68002B07D1074B5D
:103F00004FF080521A60BFF34F8FBFF36F8F00BF27
:103F10001037BD4680BD00BFA803002004ED00E0BF
:103F200080B58AB004AF0023BB6000237B603A46B3
:103F3000391D07F108031846FCF7CAFA39687B688F
:103F4000BA68029201930023009300230A461D4998
:103F50001D48FFF72AFE02461C4B1A601B4B1B68CC
:103F6000002B02D001237B6101E000237B617B6990
:103F7000012B15D14FF0500383F31188BFF36F8FDE
:103F8000BFF34F8F3B61124B4FF0FF321A60114B62
:103F900001221A60104B00221A6000F089FE0DE029
:103FA0007B69B3F1FF3F09D14FF0500383F31188D0
:103FB000BFF36F8FBFF34F8FFB60FEE700BF183773
:103FC000BD4680BDF85400086D450008A4030020DC
:103FD000A00300208C0300208403002080B400AFE5
:103FE000044B1B680133034A136000BFBD465DF8F4
:103FF000047B7047A803002080B584B000AF002385
:10400000FB600023BB60414B1B68002B09D14FF0C4
:10401000500383F31188BFF36F8FBFF34F8F3B6063
:10402000FEE700F0E3FE394B1B68013B374A1360A3
:10403000364B1B68002B61D1354B1B68002B5DD0C4
:104040002EE0344BDB68DB68FB60FB6818331846F6
:10405000FFF71AF8FB6804331846FFF715F8FB68FA
:10406000DB6A01229A402C4B1B6813432A4A1360D7
:10407000FB68DA6A13469B0013449B00274A1A44E4
:10408000FB68043319461046FEF7A1FFFB68DA6AA5
:10409000234B1B68DB6A9A4202D3224B01221A602F
:1040A0001C4B1B68002BCCD1FB68002B01D000F00F
:1040B0000FFB1D4B1B687B607B68002B10D000F052
:1040C00037F80346002B02D0164B01221A607B689A
:1040D000013B7B607B68002BF1D1134B00221A60FF
:1040E000104B1B68002B09D00123BB600F4B4FF016
:1040F00080521A60BFF34F8FBFF36F8F00F0A4FEA2
:10410000BB6818461037BD4680BD00BFA80300201D
:104110008003002040030020880300208402002048
:1041200080020020940300209003002004ED00E0B2
:1041300080B586B000AF00237B61504B1B68002B1D
:1041400040F08C804E4B1B6801333B614C4A3B690D
:1041500013603B69002B1FD14A4B1B681B68002B67
:1041600009D04FF0500383F31188BFF36F8FBFF373
:104170004F8F3B60FEE7434B1B68FB60424B1B6865
:10418000404A1360404AFB681360404B1B68013390
:104190003E4A136000F09CFA3D4B1B683A699A4214
:1041A0004DD3384B1B681B68002B01D1012300E065
:1041B0000023002B04D0364B4FF0FF321A603EE054
:1041C000304B1B68DB68DB68BB60BB685B687B608F
:1041D0003A697B689A4203D22D4A7B6813602EE0CD
:1041E000BB6804331846FEF74FFFBB689B6A002B81
:1041F00004D0BB6818331846FEF746FFBB68DB6A7D
:1042000001229A40234B1B681343224A1360BB6868
:10421000DA6A13469B0013449B001F4A1A44BB688A
:10422000043319461046FEF7D2FEBB68DA6A1B4B10
:104230001B68DB6A9A42B4D301237B61B1E7174B59
:104240001B68DA6A144913469B0013449B000B4415
:104250001B68012B07D901237B6104E0104B1B680D
:1042600001330F4A13600F4B1B68002B01D0012351
:104270007B617B6918461837BD4680BDA8030020C6
:1042800084030020380300203C0300209803002012
:10429000A003002088030020840200208002002068
:1042A000900300209403002080B487B000AF264B19
:1042B0001B68002B03D0254B01221A603EE0234BE4
:1042C00000221A60224B1B68FB60FB68B3FA83F381
:1042D000FB72FB7AC3F11F037B611E497A691346A7
:1042E0009B0013449B000B441B68002B09D14FF02B
:1042F000500383F31188BFF36F8FBFF34F8F7B6041
:10430000FEE77A6913469B0013449B00114A13444D
:104310003B613B695B685A683B695A603B695A6814
:104320003B6908339A4204D13B695B685A683B6930
:104330005A603B695B68DB68074A136000BF1C3743
:10434000BD465DF8047B7047A8030020940300205D
:1043500088030020840200208002002080B584B001
:1043600000AF786039607B68002B09D14FF05003B3
:1043700083F31188BFF36F8FBFF34F8FFB60FEE7AE
:10438000074B1B68183319467868FEF744FE012175
:10439000386800F09DFB00BF1037BD4680BD00BFF0
:1043A0008002002080B586B000AF78607B68DB6853
:1043B000DB683B613B69002B09D14FF0500383F36D
:1043C0001188BFF36F8FBFF34F8FFB60FEE73B6930
:1043D00018331846FEF758FE1D4B1B68002B1CD1E6
:1043E0003B6904331846FEF74FFE3B69DB6A012246
:1043F0009A40184B1B681343164A13603B69DA6AEC
:1044000013469B0013449B00134A1A443B69043330
:1044100019461046FEF7DBFD05E03B6918331946E7
:104420000E48FEF7D4FD3B69DA6A0D4B1B68DB6A68
:104430009A4205D901237B610A4B01221A6001E0EF
:1044400000237B617B6918461837BD4680BD00BFDD
:10445000A8030020880300208402002040030020DD
:10446000800200209403002080B483B000AF786005
:10447000064B1A687B681A60054B1A687B685A609D
:1044800000BF0C37BD465DF8047B704798030020E1
:104490008403002080B588B000AF786039607B6805
:1044A000002B09D14FF0500383F31188BFF36F8FB6
:1044B000BFF34F8F3B61FEE73B68002B09D14FF004
:1044C000500383F31188BFF36F8FBFF34F8FFB60EF
:1044D000FEE700F08BFC1D4B1B68BB617B685B68D3
:1044E000BA69D31A7B613B681B68B3F1FF3F02D105
:1044F0000023FB6123E07B681A68154B1B689A4216
:1045000007D07B685B68BA699A4202D30123FB61DA
:1045100015E03B681B687A699A420BD23B681A68BF
:104520007B69D21A3B681A607868FFF79DFF002309
:10453000FB6104E03B6800221A600123FB6100F08C
:1045400083FCFB6918462037BD4680BD84030020EC
:104550009803002080B400AF034B01221A6000BF13
:10456000BD465DF8047B70479403002080B582B09F
:1045700000AF786000F052F8064B1B68012BF9D9A8
:10458000054B4FF080521A60BFF34F8FBFF36F8F10
:10459000F0E700BF8402002004ED00E080B582B0A7
:1045A00000AF00237B600CE07A6813469B00134445
:1045B0009B00124A13441846FEF7DCFC7B6801336B
:1045C0007B607B68062BEFD90D48FEF7D3FC0D48C6
:1045D000FEF7D0FC0C48FEF7CDFC0C48FEF7CAFCF9
:1045E0000B48FEF7C7FC0B4B054A1A600A4B054AFD
:1045F0001A6000BF0837BD4680BD00BF840200209E
:104600001003002024030020400300205403002056
:104610006C030020380300203C03002080B582B0EA
:1046200000AF19E000F0E2FB0F4BDB68DB687B605A
:104630007B6804331846FEF727FD0C4B1B68013BD3
:104640000A4A13600A4B1B68013B094A136000F0D9
:10465000FBFB786800F00EF8054B1B68002BE1D1DE
:1046600000BF0837BD4680BD5403002080030020F2
:104670006803002080B584B000AF78607B6893F851
:104680005130002B08D17B681B6B184600F08AFD67
:10469000786800F087FD17E07B6893F85130012BB4
:1046A00003D1786800F07EFD0EE07B6893F851300E
:1046B000022B09D04FF0500383F31188BFF36F8FA3
:1046C000BFF34F8FFB60FEE700BF1037BD4680BDD4
:1046D00080B483B000AF0F4B1B681B68002B01D167
:1046E000012300E00023002B04D00B4B4FF0FF32DE
:1046F0001A6008E0074B1B68DB68DB687B607B683F
:104700005B68054A136000BF0C37BD465DF8047B4B
:10471000704700BF38030020A003002080B483B09E
:1047200000AF0B4B1B68002B02D101237B6008E01C
:10473000084B1B68002B02D102237B6001E00023A1
:104740007B607B6818460C37BD465DF8047B70477C
:104750008C030020A803002080B584B000AF7860EF
:104760007B68BB600023FB607B68002B6ED0BB685E
:10477000DA6A394B1B68DB6A9A425ED2BB689B6976
:10478000002B06DB344B1B68DB6AC3F10702BB68F6
:104790009A61BB685969BB68DA6A13469B00134487
:1047A0009B002E4A1344994201D1012300E00023CB
:1047B000002B3AD0BB6804331846FEF765FC03466D
:1047C000002B15D1BB68DA6A244913469B001344B9
:1047D0009B000B441B68002B0AD1BB68DB6A0122DB
:1047E00002FA03F3DA431E4B1B6813401C4A1360A2
:1047F000194B1B68DA6ABB68DA62BB68DB6A0122A4
:104800009A40174B1B681343154A1360BB68DA6A5A
:1048100013469B0013449B00104A1A44BB680433A0
:1048200019461046FEF7D3FB04E00B4B1B68DA6A0F
:10483000BB68DA620123FB6008E0BB685A6C064B78
:104840001B68DB6A9A4201D20123FB60FB681846B1
:104850001037BD4680BD00BF8002002084020020CA
:104860008803002080B586B000AF78607B683B612C
:1048700000237B617B68002B6CD0394B1B683A6945
:104880009A4209D04FF0500383F31188BFF36F8F22
:10489000BFF34F8FFB60FEE73B699B6C002B09D198
:1048A0004FF0500383F31188BFF36F8FBFF34F8F27
:1048B000BB60FEE73B699B6C5A1E3B699A643B698F
:1048C000DA6A3B695B6C9A4244D03B699B6C002B73
:1048D00040D13B6904331846FEF7D6FB0346002B54
:1048E00015D13B69DA6A1F4913469B0013449B00AC
:1048F0000B441B68002B0AD13B69DB6A012202FAD8
:1049000003F3DA43184B1B681340174A13603B69E3
:104910005A6C3B69DA623B69DB6AC3F107023B69A7
:104920009A613B69DB6A01229A400F4B1B68134373
:104930000D4A13603B69DA6A13469B0013449B00DF
:10494000084A1A443B69043319461046FEF73FFBF8
:1049500001237B617B6918461837BD4680BD00BFC7
:1049600080020020840200208803002080B588B0E7
:1049700000AF786039607B68BB6101237B617B6835
:10498000002B00F08680BB699B6C002B09D14FF097
:10499000500383F31188BFF36F8FBFF34F8FFB601A
:1049A000FEE7BB695B6C3A689A4202D93B68FB61DF
:1049B00002E0BB695B6CFB61BB69DB6AFA699A4226
:1049C00067D0BB699B6C7A699A4262D1334B1B6892
:1049D000BA699A4209D14FF0500383F31188BFF3AB
:1049E0006F8FBFF34F8FBB60FEE7BB69DB6A3B6134
:1049F000BB69FA69DA62BB699B69002B04DBFB695E
:104A0000C3F10702BB699A61BB6959693A691346E8
:104A10009B0013449B00224A1344994201D1012375
:104A200000E00023002B34D0BB6904331846FEF7A6
:104A30002BFB0346002B15D1BB69DA6A18491346D4
:104A40009B0013449B000B441B68002B0AD1BB69DD
:104A5000DB6A012202FA03F3DA43124B1B681340AC
:104A6000104A1360BB69DB6A01229A400D4B1B6838
:104A700013430C4A1360BB69DA6A13469B00134464
:104A80009B00074A1A44BB69043319461046FEF7D7
:104A90009EFA00BF2037BD4680BD00BF80020020C7
:104AA000840200208803002080B400AF074B1B68FD
:104AB000002B04D0054B1B689A6C01329A64034B9F
:104AC0001B681846BD465DF8047B704780020020D5
:104AD00080B584B000AF78603960294B1B68FB60FB
:104AE000284B1B6804331846FEF7CEFA0346002B0A
:104AF0000BD1244B1B68DB6A012202FA03F3DA4371
:104B0000214B1B681340204A13607B68B3F1FF3FC1
:104B10000AD13B68002B07D01A4B1B680433194697
:104B20001A48FEF754FA26E0FA687B681344BB6023
:104B3000144B1B68BA685A60BA68FB689A4209D27B
:104B4000134B1A680F4B1B68043319461046FEF7C7
:104B500062FA10E00F4B1A680A4B1B6804331946BF
:104B60001046FEF758FA0C4B1B68BA689A4202D2FC
:104B7000094ABB68136000BF1037BD4680BD00BF47
:104B80008403002080020020880300206C030020A2
:104B90003C03002038030020A003002080B485B02F
:104BA00000AFF860B9607A60FB68043BFB60FB68AB
:104BB0004FF080721A60FB68043BFB60BB6823F017
:104BC0000102FB681A60FB68043BFB600C4AFB684F
:104BD0001A60FB68143BFB607A68FB681A60FB682C
:104BE000043BFB60FB686FF002021A60FB68203B2D
:104BF000FB60FB6818461437BD465DF8047B7047C0
:104C0000054C000880B485B000AF00237B60114BD9
:104C10001B68B3F1FF3F09D04FF0500383F31188B5
:104C2000BFF36F8FBFF34F8FFB60FEE74FF0500372
:104C300083F31188BFF36F8FBFF34F8FBB6000BF4B
:104C40007B68002BFCD000BF1437BD465DF8047BA9
:104C5000704700BF0C0000200000000000000000B2
:104C6000074B19680868B0E8F04F80F30988BFF374
:104C70006F8F4FF0000080F311887047AFF3008012
:104C80008002002000BF00BF08480068006880F371
:104C900008884FF0000080F3148862B661B6BFF355
:104CA0004F8FBFF36F8F00DF00BF00BF08ED00E044
:104CB00080B586B000AF444B1B68444A934209D18B
:104CC0004FF0500383F31188BFF36F8FBFF34F8F03
:104CD0003B61FEE73C4B1B683D4A934209D14FF0D4
:104CE000500383F31188BFF36F8FBFF34F8FFB60C7
:104CF000FEE7384B7B617B691B78DBB27B607B69AD
:104D0000FF221A707B691B78DBB2FB70FB78DBB289
:104D100003F05003DAB2304B1A70304B07221A609E
:104D200009E02E4B1B68013B2C4A1360FB78DBB279
:104D30005B00DBB2FB70FB78DBB203F08003802BFF
:104D4000EFD0264B1B68C3F10703042B09D04FF0AB
:104D5000500383F31188BFF36F8FBFF34F8FBB6096
:104D6000FEE71E4B1B681B021C4A13601B4B1B6893
:104D700003F4E063194A13607B68DAB27B691A7046
:104D8000174B1B68164A43F470031360144B1B68DF
:104D9000134A43F07043136000F0D6F8114B002221
:104DA0001A6000F0F5F8104B1B680F4A43F04043BF
:104DB0001360FFF769FFFFF777FAFFF723FF002380
:104DC00018461837BD4680BD00ED00E071C20F41A6
:104DD00070C20F4100E400E0AC030020B0030020EB
:104DE00020ED00E00C00002034EF00E080B483B040
:104DF00000AF4FF0500383F31188BFF36F8FBFF301
:104E00004F8F7B600E4B1B6801330D4A13600C4BB8
:104E10001B68012B0ED10B4B1B68DBB2002B09D09A
:104E20004FF0500383F31188BFF36F8FBFF34F8FA1
:104E30003B60FEE700BF0C37BD465DF8047B704762
:104E40000C00002004ED00E080B483B000AF114BF3
:104E50001B68002B09D14FF0500383F31188BFF377
:104E60006F8FBFF34F8F7B60FEE70A4B1B68013BE0
:104E7000084A1360074B1B68002B04D100233B60DA
:104E80003B6883F3118800BF0C37BD465DF8047B97
:104E9000704700BF0C000020000000000000000070
:104EA000EFF30980BFF36F8F154B1A681EF0100FD8
:104EB00008BF20ED108A20E9F04F10602DE90900AD
:104EC0004FF0500080F31188BFF34F8FBFF36F8F07
:104ED000FFF7EAF94FF0000080F3118809BC196868
:104EE0000868B0E8F04F1EF0100F08BFB0EC108A51
:104EF00080F30988BFF36F8F704700BFAFF3008066
:104F00008002002000BF00BF80B582B000AF4FF02C
:104F1000500383F31188BFF36F8FBFF34F8F7B6014
:104F2000FFF706F90346002B03D0064B4FF08052E3
:104F30001A6000233B603B6883F3118800BF083789
:104F4000BD4680BD04ED00E080B400AF0B4B0022F5
:104F50001A600B4B00221A600A4B1B680A4AA2FB1C
:104F600003239B09094A013B1360044B07221A6083
:104F700000BFBD465DF8047B704700BF10E000E055
:104F800018E000E000000020D34D621014E000E0C3
:104F9000DFF80C00016841F470010160704700BF48
:104FA00088ED00E080B485B000AFEFF30583FB60CF
:104FB000FB680F2B13D9164AFB6813441B78FB724E
:104FC000144B1B78FA7A9A4209D24FF0500383F3BC
:104FD0001188BFF36F8FBFF34F8F7B60FEE70E4BDF
:104FE0001B6803F4E0620D4B1B689A4209D94FF02D
:104FF000500383F31188BFF36F8FBFF34F8F3B6074
:10500000FEE700BF1437BD465DF8047B704700BF64
:10501000F0E300E0AC0300200CED00E0B003002062
:1050200080B58AB000AF78600023FB61FEF7D6FF41
:10503000574B1B68002B01D100F00CF9554B1A6837
:105040007B681340002B40F08C807B68002B1CD0C9
:1050500008227B6813447B607B6803F00703002B06
:1050600013D07B6823F0070308337B607B6803F071
:105070000703002B09D04FF0500383F31188BFF3CF
:105080006F8FBFF34F8F7B61FEE77B68002B68D08B
:10509000414B1B687A689A4263D8404B3B623F4B56
:1050A0001B687B6204E07B6A3B627B6A1B687B62F5
:1050B0007B6A5B687A689A4203D97B6A1B68002B1B
:1050C000F1D1334B1B687A6A9A424AD03B6A1B681B
:1050D00008221344FB617B6A1A683B6A1A607B6A88
:1050E0005A687B68D21A08235B009A421ED97A6AF2
:1050F0007B681344BB61BB6903F00703002B09D035
:105100004FF0500383F31188BFF36F8FBFF34F8FBE
:105110003B61FEE77B6A5A687B68D21ABB695A60BA
:105120007B6A7A685A60B86900F0F6F81A4B1A6818
:105130007B6A5B68D31A184A1360174B1A68184BBE
:105140001B689A4203D2144B1B68154A13607B6A92
:105150005A68104B1B681A437B6A5A607B6A0022AC
:105160001A60FEF749FFFB6903F00703002B09D023
:105170004FF0500383F31188BFF36F8FBFF34F8F4E
:10518000FB60FEE7FB6918462837BD4680BD00BFBF
:10519000BC3F0020C83F0020C03F0020B43F00209B
:1051A000C43F002080B586B000AF78607B687B612B
:1051B0007B68002B46D008235B427A6913447B61ED
:1051C0007B693B613B695A68204B1B681340002B8D
:1051D00009D14FF0500383F31188BFF36F8FBFF3F2
:1051E0004F8FFB60FEE73B691B68002B09D04FF037
:1051F000500383F31188BFF36F8FBFF34F8FBB60F2
:10520000FEE73B695A68114B1B681340002B19D00D
:105210003B691B68002B15D13B695A680B4B1B6817
:10522000DB431A403B695A60FEF7D8FE3B695A6877
:10523000074B1B681344064A1360386900F06CF88A
:10524000FEF7DAFE00BF1837BD4680BDC83F00201C
:10525000C03F002080B485B000AF4FF47053BB60F6
:10526000274BFB60FB6803F00703002B0CD0FB68A7
:105270000733FB60FB6823F00703FB60BA68FB6839
:10528000D31A1F4A1344BB60FB687B601D4A7B68CE
:1052900013601C4B00225A607B68BA681344FB60A1
:1052A0000822FB689B1AFB60FB6823F00703FB6086
:1052B000FB68154A1360144B1B6800225A60124B9E
:1052C0001B6800221A607B683B603B68FA68D21A50
:1052D0003B685A600C4B1A683B681A603B685B6815
:1052E0000A4A13603B685B68094A1360094B4FF038
:1052F00000421A6000BF1437BD465DF8047B70475A
:10530000B4030020B43F0020BC3F0020C43F002075
:10531000C03F0020C83F002080B485B000AF786057
:10532000284BFB6002E0FB681B68FB60FB681B68A6
:105330007A689A42F7D8FB68BB60FB685B68BA681A
:1053400013447A689A4208D1FB685A687B685B68A4
:105350001A44FB685A60FB687B607B68BB607B68B3
:105360005B68BA681A44FB681B689A4218D1FB68EC
:105370001A68154B1B689A420DD07B685A68FB6807
:105380001B685B681A447B685A60FB681B681A6874
:105390007B681A6008E00C4B1A687B681A6003E0AF
:1053A000FB681A687B681A60FA687B689A4202D0C8
:1053B000FB687A681A6000BF1437BD465DF8047B4D
:1053C000704700BFB43F0020BC3F002070B50D4EB9
:1053D0000D4CA41BA4100025A54209D10B4E0C4C6A
:1053E00000F02CF8A41BA4100025A54205D170BD27
:1053F00056F8253098470135EEE756F8253098479E
:105400000135F2E720550008205500082055000816
:105410002455000810B5431E0A44914200D110BD26
:1054200011F8014B03F8014FF7E70244034693429A
:1054300000D1704703F8011BF9E70000F8B500BF81
:10544000F8BC08BC9E467047F8B500BFF8BC08BC65
:045450009E467047BD
:1054540064656661756C745461736B005454000820
:1054640075070008FDFF0000000000008000000038
:1054740000000000000000006D795461736B30324D
:10548400000000007C540008ED0700080000000044
:105494000000000080000000000000000000000088
:1054A4006D795461736B303300000000A45400081C
:1054B400490800080000000000000000800000000F
:1054C4000000000000000000313131313131313150
:1054D40031313131313131313131313131313131B8
:1054E40031313131313131313131313131313131A8
:1054F4000D0A000049444C45000000000000000073
:10550400000000000102030406070809000000006F
:045514000102030489
:08551800E8ACFF7F0100000078
:04552000B5010008C9
:0455240091010008E9
:105528000024F4001000000001000000AAAAAAAAA2
:0400000508000B09DB
:00000001FF
